:040000001EEF00F0FF
:100008005F82F2AA0AEF00F00CEF00F01CEF00F09C
:10001800F2A411EF00F013EF00F01CEF00F0850ED2
:10002800D76EEE0ED66E010E0001FD6FFB2BF2941B
:100038005F92110070EF29F0000E0101686F000E49
:10004800696F800E6A6FBF0E6B6F000E6C6F000ECB
:100058006D6F800E6E6F3F0E6F6F810E706F800E2A
:10006800716F000E726F3C0E736F000E796F070E82
:10007800786F000E7A6F010E7B6F280E806F010E6D
:10008800816F000ECB6F000ECA6FA5C095F0A6C099
:1000980096F0A7C097F0A8C098F050EC2BF095C048
:1000A80092F196C093F197C094F198C095F1A5C0CC
:1000B80095F0A6C096F0A7C097F0A8C098F00CECF1
:1000C8002BF095C096F196C097F197C098F198C01B
:1000D80099F1A5C095F0A6C096F0A7C097F0A8C062
:1000E80098F0C8EC2AF095C09AF196C09BF197C099
:1000F8009CF198C09DF1A5C095F0A6C096F0A7C048
:1001080097F0A8C098F0B8EC29F095C09EF196C079
:100118009FF197C0A0F198C0A1F1A5C095F0A6C025
:1001280096F0A7C097F0A8C098F0FCEC29F095C00D
:10013800A2F196C0A3F197C0A4F198C0A5F1A5C0FB
:1001480095F0A6C096F0A7C097F0A8C098F040EC2C
:100158002AF095C0A6F196C0A7F197C0A8F198C05B
:10016800A9F1A5C095F0A6C096F0A7C097F0A8C0C1
:1001780098F084EC2AF095C0AAF196C0ABF197C02C
:10018800ACF198C0ADF1A9C095F0AAC096F0ABC08B
:1001980097F0ACC098F02CEC2DF095C0AEF196C05D
:1001A800AFF197C0B0F198C0B1F1A9C095F0AAC05D
:1001B80096F0ABC097F0ACC098F0E8EC2CF095C086
:1001C800B2F196C0B3F197C0B4F198C0B5F1A9C027
:1001D80095F0AAC096F0ABC097F0ACC098F0A4EC2C
:1001E8002CF095C0B6F196C0B7F197C0B8F198C099
:1001F800B9F1A9C095F0AAC096F0ABC097F0ACC011
:1002080098F094EC2BF095C0BAF196C0BBF197C06A
:10021800BCF198C0BDF1A9C095F0AAC096F0ABC0DA
:1002280097F0ACC098F0D8EC2BF095C0BEF196C012
:10023800BFF197C0C0F198C0C1F1A9C095F0AAC09C
:1002480096F0ABC097F0ACC098F01CEC2CF095C0C1
:10025800C2F196C0C3F197C0C4F198C0C5F1A9C056
:1002680095F0AAC096F0ABC097F0ACC098F060ECDF
:100278002CF095C0C6F196C0C7F197C0C8F198C0D8
:10028800C9F19EC14FF09FC150F0A0C151F0A1C16A
:1002980052F0AEC153F0AFC154F0B0C155F0B1C186
:1002A80056F011EC2FF04FC057F050C058F051C025
:1002B80059F052C05AF09AC14FF09BC150F09CC1FE
:1002C80051F09DC152F0B2C153F0B3C154F0B4C162
:1002D80055F0B5C156F011EC2FF04FC05BF050C08F
:1002E8005CF051C05DF052C05EF0E5EC2EF057C0F6
:1002F80086F158C087F159C088F15AC089F186C182
:1003080057F087C158F088C159F089C15AF09AC18D
:100318004FF09BC150F09CC151F09DC152F0AEC14D
:1003280053F0AFC154F0B0C155F0B1C156F011EC63
:100338002FF04FC05BF050C05CF051C05DF052C070
:100348005EF0E5EC2EF057C08AF158C08BF159C029
:100358008CF15AC08DF18AC157F08BC158F08CC10D
:1003680059F08DC15AF096C14FF097C150F098C11D
:1003780051F099C152F0B6C153F0B7C154F0B8C1A9
:1003880055F0B9C156F011EC2FF04FC05BF050C0DA
:100398005CF051C05DF052C05EF0E5EC2EF057C045
:1003A8008EF158C08FF159C090F15AC091F18EC1A9
:1003B80057F08FC158F090C159F091C15AF096C1C9
:1003C8004FF097C150F098C151F099C152F0B2C1A5
:1003D80053F0B3C154F0B4C155F0B5C156F011ECA7
:1003E8002FF04FC05BF050C05CF051C05DF052C0C0
:1003F8005EF0E5EC2EF057C064F158C065F159C0C5
:1004080066F15AC067F164C157F065C158F066C11A
:1004180059F067C15AF096C14FF097C150F098C192
:1004280051F099C152F0AEC153F0AFC154F0B0C110
:1004380055F0B1C156F011EC2FF04FC05BF050C031
:100448005CF051C05DF052C05EF0E5EC2EF057C094
:1004580060F158C061F159C062F15AC063F160C1DE
:1004680057F061C158F062C159F063C15AF092C1A6
:100478004FF093C150F094C151F095C152F0BAC1F8
:1004880053F0BBC154F0BCC155F0BDC156F011ECDE
:100498002FF04FC05BF050C05CF051C05DF052C00F
:1004A8005EF0E5EC2EF057C01CF158C01DF159C0A4
:1004B8001EF15AC01FF11CC157F01DC158F01EC1D2
:1004C80059F01FC15AF092C14FF093C150F094C136
:1004D80051F095C152F0B6C153F0B7C154F0B8C14C
:1004E80055F0B9C156F011EC2FF04FC05BF050C079
:1004F8005CF051C05DF052C05EF0E5EC2EF057C0E4
:1005080020F158C021F159C022F15AC023F120C16D
:1005180057F021C158F022C159F023C15AF092C1B5
:100528004FF093C150F094C151F095C152F0AEC153
:1005380053F0AFC154F0B0C155F0B1C156F011EC51
:100548002FF04FC05BF050C05CF051C05DF052C05E
:100558005EF0E5EC2EF057C024F158C025F159C0E3
:1005680026F15AC027F124C157F025C158F026C1F9
:1005780059F027C15AF092C14FF093C150F094C17D
:1005880051F095C152F0B2C153F0B3C154F0B4C1A7
:1005980055F0B5C156F011EC2FF04FC05BF050C0CC
:1005A8005CF051C05DF052C05EF0E5EC2EF057C033
:1005B80082F158C083F159C084F15AC085F182C1D3
:1005C80000F183C101F184C102F185C103F1000E7C
:1005D8000101286F000E296F980E2A6F630E2B6F8A
:1005E800CA4BCB2BA2C14FF0A3C150F0A4C151F00C
:1005F800A5C152F0AEC153F0AFC154F0B0C155F02F
:10060800B1C156F011EC2FF04FC057F050C058F060
:1006180051C059F052C05AF09EC14FF09FC150F0DE
:10062800A0C151F0A1C152F0B2C153F0B3C154F00E
:10063800B4C155F0B5C156F011EC2FF04FC05BF0C6
:1006480050C05CF051C05DF052C05EF0E5EC2EF099
:1006580057C086F158C087F159C088F15AC089F14E
:1006680086C157F087C158F088C159F089C15AF03E
:100678009AC14FF09BC150F09CC151F09DC152F0FE
:10068800B6C153F0B7C154F0B8C155F0B9C156F06E
:1006980011EC2FF04FC05BF050C05CF051C05DF022
:1006A80052C05EF0E5EC2EF057C08AF158C08BF1CD
:1006B80059C08CF15AC08DF18AC157F08BC158F0DE
:1006C8008CC159F08DC15AF092C14FF093C150F0CE
:1006D80094C151F095C152F0BEC153F0BFC154F05E
:1006E800C0C155F0C1C156F011EC2FF04FC05BF0FE
:1006F80050C05CF051C05DF052C05EF0E5EC2EF0E9
:1007080057C08EF158C08FF159C090F15AC091F17D
:100718008EC157F08FC158F090C159F091C15AF06D
:1007280096C14FF097C150F098C151F099C152F05D
:10073800BAC153F0BBC154F0BCC155F0BDC156F0AD
:1007480011EC2FF04FC05BF050C05CF051C05DF071
:1007580052C05EF0E5EC2EF057C082F158C083F12C
:1007680059C084F15AC085F1000E0001AF6F010E27
:10077800B06FD8900101CA35D96ECB35DA6ED890F2
:10078800D936DA360001AF51D926B051DA2282C102
:10079800DEFF83C1DEFF84C1DEFF85C1DEFFCAC183
:1007A800AFF0CBC1B0F0D890AF37B037D890AF37F3
:1007B800B037D890AF37B037280EAF25D96E010EB5
:1007C800B021DA6E000EDE6E000EDD6ECAC1AFF02B
:1007D800CBC1B0F0D890AF37B037D890AF37B0377B
:1007E800D890AF37B037020EAF27000EB023280ECF
:1007F800AF25D96E010EB021DA6E860EDE6E630E5D
:10080800DD6E0101CA4BCB2BA6C14FF0A7C150F03A
:10081800A8C151F0A9C152F0AEC153F0AFC154F014
:10082800B0C155F0B1C156F011EC2FF04FC057F0E0
:1008380050C058F051C059F052C05AF0A2C14FF000
:10084800A3C150F0A4C151F0A5C152F0B2C153F0F8
:10085800B3C154F0B4C155F0B5C156F011EC2FF046
:100868004FC05BF050C05CF051C05DF052C05EF00C
:10087800E5EC2EF057C086F158C087F159C088F1D1
:100888005AC089F186C157F087C158F088C159F01C
:1008980089C15AF09EC14FF09FC150F0A0C151F0DC
:1008A800A1C152F0B6C153F0B7C154F0B8C155F068
:1008B800B9C156F011EC2FF04FC05BF050C05CF09E
:1008C80051C05DF052C05EF0E5EC2EF057C08AF1E1
:1008D80058C08BF159C08CF15AC08DF18AC157F0BC
:1008E8008BC158F08CC159F08DC15AF09AC14FF0A4
:1008F8009BC150F09CC151F09DC152F0BAC153F058
:10090800BBC154F0BCC155F0BDC156F011EC2FF07D
:100918004FC05BF050C05CF051C05DF052C05EF05B
:10092800E5EC2EF057C08EF158C08FF159C090F108
:100938005AC091F18EC157F08FC158F090C159F04B
:1009480091C15AF092C14FF093C150F094C151F047
:1009580095C152F0C2C153F0C3C154F0C4C155F09F
:10096800C5C156F011EC2FF04FC05BF050C05CF0E1
:1009780051C05DF052C05EF0E5EC2EF057C064F156
:1009880058C065F159C066F15AC067F164C157F0A3
:1009980065C158F066C159F067C15AF096C14FF069
:1009A80097C150F098C151F099C152F0BEC153F0AF
:1009B800BFC154F0C0C155F0C1C156F011EC2FF0C1
:1009C8004FC05BF050C05CF051C05DF052C05EF0AB
:1009D800E5EC2EF057C082F158C083F159C084F17C
:1009E8005AC085F1000E0001AF6F010EB06FD890AC
:1009F8000101CA35D96ECB35DA6ED890D936DA36D8
:100A08000001AF51D926B051DA2282C1DEFF83C17D
:100A1800DEFF84C1DEFF85C1DEFFCAC1AFF0CBC1F6
:100A2800B0F0D890AF37B037D890AF37B037D8904C
:100A3800AF37B037280EAF25D96E010EB021DA6E68
:100A4800000EDE6E000EDD6ECAC1AFF0CBC1B0F095
:100A5800D890AF37B037D890AF37B037D890AF37D6
:100A6800B037020EAF27000EB023280EAF25D96E7F
:100A7800010EB021DA6E740EDE6E630EDD6E0101BA
:100A8800CA4BCB2BAAC14FF0ABC150F0ACC151F04F
:100A9800ADC152F0AEC153F0AFC154F0B0C155F082
:100AA800B1C156F011EC2FF04FC057F050C058F0BC
:100AB80051C059F052C05AF0A6C14FF0A7C150F02A
:100AC800A8C151F0A9C152F0B2C153F0B3C154F05A
:100AD800B4C155F0B5C156F011EC2FF04FC05BF022
:100AE80050C05CF051C05DF052C05EF0E5EC2EF0F5
:100AF80057C086F158C087F159C088F15AC089F1AA
:100B080086C157F087C158F088C159F089C15AF099
:100B1800A2C14FF0A3C150F0A4C151F0A5C152F039
:100B2800B6C153F0B7C154F0B8C155F0B9C156F0C9
:100B380011EC2FF04FC05BF050C05CF051C05DF07D
:100B480052C05EF0E5EC2EF057C08AF158C08BF128
:100B580059C08CF15AC08DF18AC157F08BC158F039
:100B68008CC159F08DC15AF09EC14FF09FC150F011
:100B7800A0C151F0A1C152F0BAC153F0BBC154F0A9
:100B8800BCC155F0BDC156F011EC2FF04FC05BF061
:100B980050C05CF051C05DF052C05EF0E5EC2EF044
:100BA80057C08EF158C08FF159C090F15AC091F1D9
:100BB8008EC157F08FC158F090C159F091C15AF0C9
:100BC8009AC14FF09BC150F09CC151F09DC152F0A9
:100BD800BEC153F0BFC154F0C0C155F0C1C156F0F9
:100BE80011EC2FF04FC05BF050C05CF051C05DF0CD
:100BF80052C05EF0E5EC2EF057C064F158C065F1C4
:100C080059C066F15AC067F164C157F065C158F020
:100C180066C159F067C15AF092C14FF093C150F0C4
:100C280094C151F095C152F0C6C153F0C7C154F0F8
:100C3800C8C155F0C9C156F011EC2FF04FC05BF098
:100C480050C05CF051C05DF052C05EF0E5EC2EF093
:100C580057C060F158C061F159C062F15AC063F1E0
:100C680060C157F061C158F062C159F063C15AF0D0
:100C780096C14FF097C150F098C151F099C152F008
:100C8800C2C153F0C3C154F0C4C155F0C5C156F038
:100C980011EC2FF04FC05BF050C05CF051C05DF01C
:100CA80052C05EF0E5EC2EF057C082F158C083F1D7
:100CB80059C084F15AC085F1000E0001AF6F010ED2
:100CC800B06FD8900101CA35D96ECB35DA6ED8909D
:100CD800D936DA360001AF51D926B051DA2282C1AD
:100CE800DEFF83C1DEFF84C1DEFF85C1DEFFCAC12E
:100CF800AFF0CBC1B0F0D890AF37B037D890AF379E
:100D0800B037D890AF37B037280EAF25D96E010E5F
:100D1800B021DA6E000EDE6E000EDD6ECAC1AFF0D5
:100D2800CBC1B0F0D890AF37B037D890AF37B03725
:100D3800D890AF37B037020EAF27000EB023280E79
:100D4800AF25D96E010EB021DA6EAA0EDE6E630EE3
:100D5800DD6E0101CA4BCB2BAAC14FF0ABC150F0DD
:100D6800ACC151F0ADC152F0B2C153F0B3C154F0AF
:100D7800B4C155F0B5C156F011EC2FF04FC057F083
:100D880050C058F051C059F052C05AF0A6C14FF0A7
:100D9800A7C150F0A8C151F0A9C152F0B6C153F093
:100DA800B7C154F0B8C155F0B9C156F011EC2FF0E5
:100DB8004FC05BF050C05CF051C05DF052C05EF0B7
:100DC800E5EC2EF057C086F158C087F159C088F17C
:100DD8005AC089F186C157F087C158F088C159F0C7
:100DE80089C15AF0A2C14FF0A3C150F0A4C151F07B
:100DF800A5C152F0BAC153F0BBC154F0BCC155F003
:100E0800BDC156F011EC2FF04FC05BF050C05CF044
:100E180051C05DF052C05EF0E5EC2EF057C08AF18B
:100E280058C08BF159C08CF15AC08DF18AC157F066
:100E38008BC158F08CC159F08DC15AF09EC14FF04A
:100E48009FC150F0A0C151F0A1C152F0BEC153F0F2
:100E5800BFC154F0C0C155F0C1C156F011EC2FF01C
:100E68004FC05BF050C05CF051C05DF052C05EF006
:100E7800E5EC2EF057C08EF158C08FF159C090F1B3
:100E88005AC091F18EC157F08FC158F090C159F0F6
:100E980091C15AF096C14FF097C150F098C151F0E6
:100EA80099C152F0C6C153F0C7C154F0C8C155F03A
:100EB800C9C156F011EC2FF04FC05BF050C05CF088
:100EC80051C05DF052C05EF0E5EC2EF057C064F101
:100ED80058C065F159C066F15AC067F164C157F04E
:100EE80065C158F066C159F067C15AF09AC14FF010
:100EF8009BC150F09CC151F09DC152F0C2C153F04A
:100F0800C3C154F0C4C155F0C5C156F011EC2FF05F
:100F18004FC05BF050C05CF051C05DF052C05EF055
:100F2800E5EC2EF057C082F158C083F159C084F126
:100F38005AC085F1000E0001AF6F010EB06FD89056
:100F48000101CA35D96ECB35DA6ED890D936DA3682
:100F58000001AF51D926B051DA2282C1DEFF83C128
:100F6800DEFF84C1DEFF85C1DEFFCAC1AFF0CBC1A1
:100F7800B0F0D890AF37B037D890AF37B037D890F7
:100F8800AF37B037280EAF25D96E010EB021DA6E13
:100F9800000EDE6E000EDD6ECAC1AFF0CBC1B0F040
:100FA800D890AF37B037D890AF37B037D890AF3781
:100FB800B037020EAF27000EB023280EAF25D96E2A
:100FC800010EB021DA6E620EDE6E630EDD6E010177
:100FD800CA4BCB2BAAC14FF0ABC150F0ACC151F0FA
:100FE800ADC152F0B6C153F0B7C154F0B8C155F015
:100FF800B9C156F011EC2FF04FC057F050C058F05F
:1010080051C059F052C05AF0A6C14FF0A7C150F0D4
:10101800A8C151F0A9C152F0BAC153F0BBC154F0F4
:10102800BCC155F0BDC156F011EC2FF04FC05BF0BC
:1010380050C05CF051C05DF052C05EF0E5EC2EF09F
:1010480057C086F158C087F159C088F15AC089F154
:1010580086C157F087C158F088C159F089C15AF044
:10106800A2C14FF0A3C150F0A4C151F0A5C152F0E4
:10107800BEC153F0BFC154F0C0C155F0C1C156F054
:1010880011EC2FF04FC05BF050C05CF051C05DF028
:1010980052C05EF0E5EC2EF057C08AF158C08BF1D3
:1010A80059C08CF15AC08DF18AC157F08BC158F0E4
:1010B8008CC159F08DC15AF09AC14FF09BC150F0C4
:1010C8009CC151F09DC152F0C6C153F0C7C154F044
:1010D800C8C155F0C9C156F011EC2FF04FC05BF0F4
:1010E80050C05CF051C05DF052C05EF0E5EC2EF0EF
:1010F80057C08EF158C08FF159C090F15AC091F184
:101108008EC157F08FC158F090C159F091C15AF073
:101118009EC14FF09FC150F0A0C151F0A1C152F043
:10112800C2C153F0C3C154F0C4C155F0C5C156F093
:1011380011EC2FF04FC05BF050C05CF051C05DF077
:1011480052C05EF0E5EC2EF057C082F158C083F132
:1011580059C084F15AC085F1000E0001AF6F010E2D
:10116800B06FD8900101CA35D96ECB35DA6ED890F8
:10117800D936DA360001AF51D926B051DA2282C108
:10118800DEFF83C1DEFF84C1DEFF85C1DEFFCAC189
:10119800AFF0CBC1B0F0D890AF37B037D890AF37F9
:1011A800B037D890AF37B037280EAF25D96E010EBB
:1011B800B021DA6E000EDE6E000EDD6ECAC1AFF031
:1011C800CBC1B0F0D890AF37B037D890AF37B03781
:1011D800D890AF37B037020EAF27000EB023280ED5
:1011E800AF25D96E010EB021DA6E500EDE6E630E99
:1011F800DD6E0101CA4BCB2BAAC14FF0ABC150F039
:10120800ACC151F0ADC152F0C6C153F0C7C154F0E2
:10121800C8C155F0C9C156F011EC2FF04FC057F0B6
:1012280050C058F051C059F052C05AF0AAC14FF0FE
:10123800ABC150F0ACC151F0ADC152F0C2C153F0D6
:10124800C3C154F0C4C155F0C5C156F011EC2FF01C
:101258004FC05BF050C05CF051C05DF052C05EF012
:10126800E5EC2EF057C086F158C087F159C088F1D7
:101278005AC089F186C157F087C158F088C159F022
:1012880089C15AF0AAC14FF0ABC150F0ACC151F0BE
:10129800ADC152F0BEC153F0BFC154F0C0C155F04A
:1012A800C1C156F011EC2FF04FC05BF050C05CF09C
:1012B80051C05DF052C05EF0E5EC2EF057C08AF1E7
:1012C80058C08BF159C08CF15AC08DF18AC157F0C2
:1012D8008BC158F08CC159F08DC15AF0AAC14FF09A
:1012E800ABC150F0ACC151F0ADC152F0BAC153F02E
:1012F800BBC154F0BCC155F0BDC156F011EC2FF084
:101308004FC05BF050C05CF051C05DF052C05EF061
:10131800E5EC2EF057C08EF158C08FF159C090F10E
:101328005AC091F18EC157F08FC158F090C159F051
:1013380091C15AF0A6C14FF0A7C150F0A8C151F011
:10134800A9C152F0C6C153F0C7C154F0C8C155F085
:10135800C9C156F011EC2FF04FC05BF050C05CF0E3
:1013680051C05DF052C05EF0E5EC2EF057C064F15C
:1013780058C065F159C066F15AC067F164C157F0A9
:1013880065C158F066C159F067C15AF0A6C14FF05F
:10139800A7C150F0A8C151F0A9C152F0C2C153F081
:1013A800C3C154F0C4C155F0C5C156F011EC2FF0BB
:1013B8004FC05BF050C05CF051C05DF052C05EF0B1
:1013C800E5EC2EF057C060F158C061F159C062F1E8
:1013D8005AC063F160C157F061C158F062C159F059
:1013E80063C15AF0A6C14FF0A7C150F0A8C151F08F
:1013F800A9C152F0BEC153F0BFC154F0C0C155F0ED
:10140800C1C156F011EC2FF04FC05BF050C05CF03A
:1014180051C05DF052C05EF0E5EC2EF057C01CF1F3
:1014280058C01DF159C01EF15AC01FF11CC157F018
:101438001DC158F01EC159F01FC15AF0A2C14FF08A
:10144800A3C150F0A4C151F0A5C152F0C6C153F0D8
:10145800C7C154F0C8C155F0C9C156F011EC2FF0FE
:101468004FC05BF050C05CF051C05DF052C05EF000
:10147800E5EC2EF057C020F158C021F159C022F1F7
:101488005AC023F120C157F021C158F022C159F0A8
:1014980023C15AF09EC14FF09FC150F0A0C151F036
:1014A800A1C152F0C6C153F0C7C154F0C8C155F02C
:1014B800C9C156F011EC2FF04FC05BF050C05CF082
:1014C80051C05DF052C05EF0E5EC2EF057C024F13B
:1014D80058C025F159C026F15AC027F124C157F048
:1014E80025C158F026C159F027C15AF0A2C14FF0C2
:1014F800A3C150F0A4C151F0A5C152F0C2C153F02C
:10150800C3C154F0C4C155F0C5C156F011EC2FF059
:101518004FC05BF050C05CF051C05DF052C05EF04F
:10152800E5EC2EF057C082F158C083F159C084F120
:101538005AC085F1000E0001AF6F010EB06FD89050
:101548000101CA35D96ECB35DA6ED890D936DA367C
:101558000001AF51D926B051DA2282C1DEFF83C122
:10156800DEFF84C1DEFF85C1DEFFCAC1AFF0CBC19B
:10157800B0F0D890AF37B037D890AF37B037D890F1
:10158800AF37B037280EAF25D96E010EB021DA6E0D
:10159800000EDE6E000EDD6ECAC1AFF0CBC1B0F03A
:1015A800D890AF37B037D890AF37B037D890AF377B
:1015B800B037020EAF27000EB023280EAF25D96E24
:1015C800010EB021DA6E3E0EDE6E630EDD6E010195
:1015D800CA4BCB2B21EE68F000EE75F0190EDBCF6D
:1015E800EBFFE806FCE29EEC1CF0ADC0D9FFAEC0F4
:1015F800DAFF000175C0DEFF76C0DEFF77C0DEFFD0
:1016080078C0DEFF1200000E0001B36F8BC0B4F08B
:101618008CC0B5F08DC0B6F08EC0B7F0B7BF19EF6B
:101628000BF017EF0BF02DEF0BF0010EB36FB4C0FA
:1016380001F0B5C002F0B6C003F0B7C004F0AAECE0
:1016480030F001C0B4F002C0B5F003C0B6F004C079
:10165800B7F0000E0001B96F000EB86FF4C0A3F028
:10166800F5C0A4F0B351D8B43CEF0BF03EEF0BF04B
:1016780052EF0BF0B351D8A444EF0BF046EF0BF048
:101688004CEF0BF0000E996F2B0E986F50EF0BF08C
:10169800000E996F2D0E986F98C0B3F0B4C001F08A
:1016A800B5C002F0B6C003F0B7C004F090EC25F066
:1016B80001040210D8A463EF0BF065EF0BF098EF6C
:1016C8000BF00001B351D8B46CEF0BF06EEF0BF0D8
:1016D80077EF0BF0B3C000F2A307D8A0A407000E61
:1016E800B96F010EB86F000EB825016E020EB92150
:1016F800026EF70E036E7F0E046E6BEC30F0000185
:10170800FD0EA327FF0EA42389C012F08AC013F090
:10171800000E146E020E156EA3C016F0A4C017F0CA
:101728001FEC28F03BEF10F0B4C001F0B5C002F098
:10173800B6C003F0B7C004F090EC25F001500210D9
:10174800D8A4A9EF0BF0ABEF0BF0CBEF0BF0000137
:10175800B351D8B4B2EF0BF0B4EF0BF0BDEF0BF010
:10176800B3C000F2A307D8A0A407000EB96F010EFA
:10177800B86F000EB825016E020EB921026EFB0E7D
:10178800036E7F0E046E6BEC30F083EF0BF0000EEF
:101798000001BA6F000EBB6F800EBC6F3F0EBD6FAD
:1017A800000EA26F000EA16FB4C001F0B5C002F028
:1017B800B6C003F0B7C004F0000E056E000E066E4A
:1017C800000E076E000E086E76EC28F0D8B0EFEF2A
:1017D8000BF0F1EF0BF0D1EF0CF0FEEF0BF0A5C022
:1017E800BAF0A6C0BBF0A7C0BCF0A8C0BDF000010D
:1017F800A14BA22BBAC02AF0BBC02BF0BCC02CF066
:10180800BDC02DF0000E2E6E000E2F6E200E306E15
:10181800410E316EBBEC18F02AC0A5F02BC0A6F023
:101828002CC0A7F02DC0A8F00001A551B45D016E31
:10183800A651B559026EA751B659036EA851B759AA
:10184800046E22EC2EF004BE35EF0CF004500310A9
:10185800021009E1020E015CD8A035EF0CF037EF59
:101868000CF0F3EF0BF0A5C043F0A6C044F0A7C0FE
:1018780045F0A8C046F0B4C047F0B5C048F0B6C0BF
:1018880049F0B7C04AF00EEC25F0D8A04EEF0CF0A6
:1018980050EF0CF0F3EF0BF00001BA51B45D016E9C
:1018A800BB51B559026EBC51B659036EBD51B759FB
:1018B800046E22EC2EF004BE6FEF0CF004500310FF
:1018C800021007E1020E015CD8B06DEF0CF06FEF6B
:1018D8000CF0B8EF0CF0BAC0B4F0BBC0B5F0BCC0A7
:1018E800B6F0BDC0B7F0D1EF0CF0BAC060F0BBC025
:1018F80061F0BCC062F0BDC063F0000E0001646F0F
:10190800000E656F200E666F410E676FD0EC1AF0FF
:1019180060C0BAF061C0BBF062C0BCF063C0BDF08B
:101928000001A107D8A0A207BA51B45D016EBB514E
:10193800B559026EBC51B659036EBD51B759046E04
:1019480022EC2EF004BEB6EF0CF004500310021087
:1019580007E1020E015CD8B0B4EF0CF0B6EF0CF062
:10196800B8EF0CF06FEF0CF0B4C043F0B5C044F022
:10197800B6C045F0B7C046F0BAC047F0BBC048F0A3
:10198800BCC049F0BDC04AF00EEC25F0D8A0CFEF9E
:101998000CF0D1EF0CF079EF0CF08FC09BF09BC0EE
:1019A8009CF00001F7BFDBEF0CF0DDEF0CF0E3EF8C
:1019B8000CF0F6C094F0F7C095F0E7EF0CF0000ECD
:1019C800956F060E946F94C09FF095C0A0F09F4B42
:1019D800A02B660E9C19D8A4F4EF0CF0F6EF0CF0CF
:1019E80016EF0DF0A2BFFDEF0CF0FBEF0CF009EFC6
:1019F8000DF0000EBA6F000EBB6F800EBC6F3F0E6D
:101A0800BD6F000EA26F000EA16F670E9B19D8B4B0
:101A180010EF0DF012EF0DF016EF0DF0A1519F270A
:101A2800A251A023000EB26F000EB16FB4C0A9F08E
:101A3800B5C0AAF0B6C0ABF0B7C0ACF0BAC0A5F05C
:101A4800BBC0A6F0BCC0A7F0BDC0A8F0A8EF0DF0C1
:101A5800A9C060F0AAC061F0ABC062F0ACC063F08E
:101A6800BAC064F0BBC065F0BCC066F0BDC067F02A
:101A7800D0EC1AF060C075F061C076F062C077F003
:101A880063C078F0BFEC1DF075C0ADF076C0AEF065
:101A980077C0AFF078C0B0F0ADC001F0AEC002F0D2
:101AA800AFC003F0B0C004F08BEC24F001C09DF08F
:101AB80002C09EF0A9C053F0AAC054F0ABC055F0C4
:101AC800ACC056F0ADC02EF0AEC02FF0AFC030F0B5
:101AD800B0C031F0BAC02AF0BBC02BF0BCC02CF0AB
:101AE800BDC02DF0BBEC18F02AC057F02BC058F041
:101AF8002CC059F02DC05AF026EC30F053C0A9F094
:101B080054C0AAF055C0ABF056C0ACF0BAC060F0F3
:101B1800BBC061F0BCC062F0BDC063F0000E000144
:101B2800646F000E656F200E666F410E676FD0EC14
:101B38001AF060C0BAF061C0BBF062C0BCF063C00C
:101B4800BDF00001B14BB22B9F51B15DB251800A7B
:101B5800906FA051800A9059D8A0B5EF0DF0B7EF5B
:101B68000DF02CEF0DF0BAC02AF0BBC02BF0BCC0B2
:101B78002CF0BDC02DF0000E2E6E000E2F6EA00EA4
:101B8800306E400E316EBBEC18F02AC0ADF02BC0A1
:101B9800AEF02CC0AFF02DC0B0F0A9C043F0AAC081
:101BA80044F0ABC045F0ACC046F0ADC047F0AEC0A5
:101BB80048F0AFC049F0B0C04AF00EEC25F0D8B0FC
:101BC800E8EF0DF0EAEF0DF0F5EF0DF0000E000173
:101BD800AD6F000EAE6F000EAF6F000EB06F1EEF50
:101BE8000EF0A9C001F0AAC002F0ABC003F0ACC06F
:101BF80004F0ADC005F0AEC006F0AFC007F0B0C04D
:101C080008F076EC28F0D8A00CEF0EF00EEF0EF0EE
:101C18001EEF0EF000019DB114EF0EF016EF0EF05E
:101C28001EEF0EF0000EAD6F000EAE6F000EAF6F20
:101C3800000EB06FB4C043F0B5C044F0B6C045F074
:101C4800B7C046F0ADC047F0AEC048F0AFC049F0ED
:101C5800B0C04AF05BEC16F043C0A9F044C0AAF04B
:101C680045C0ABF046C0ACF0A9C043F0AAC044F0F0
:101C7800ABC045F0ACC046F0000E2E6E000E2F6EC5
:101C8800200E306E410E316EA5C02AF0A6C02BF092
:101C9800A7C02CF0A8C02DF0BBEC18F02AC047F064
:101CA8002BC048F02CC049F02DC04AF00EEC25F0AE
:101CB800D8A061EF0EF063EF0EF08CEF0EF000018C
:101CC800A14BA22BA5C02AF0A6C02BF0A7C02CF0D0
:101CD800A8C02DF0000E2E6E000E2F6E200E306E56
:101CE800410E316EBBEC18F02AC0A5F02BC0A6F04F
:101CF8002CC0A7F02DC0A8F0660E00019C19D8A42E
:101D080088EF0EF08AEF0EF08CEF0EF09F4BA02BB1
:101D1800A5C0BAF0A6C0BBF0A7C0BCF0A8C0BDF073
:101D2800A1C092F0A2C093F0000E00019A6F000EBD
:101D3800976F000E966F000EB26F000EB16F8BEFAB
:101D48000FF0A9C060F0AAC061F0ABC062F0ACC0EF
:101D580063F0BAC064F0BBC065F0BCC066F0BDC03B
:101D680067F0D0EC1AF060C075F061C076F062C020
:101D780077F063C078F0BFEC1DF075C0ADF076C0A9
:101D8800AEF077C0AFF078C0B0F0ADC001F0AEC033
:101D980002F0AFC003F0B0C004F08BEC24F002BE38
:101DA800E1EF0EF0025007E10A0E015CD8B0DFEF58
:101DB8000EF0E1EF0EF0F1EF0EF0ADC001F0AEC0A5
:101DC80002F0AFC003F0B0C004F08BEC24F001C007
:101DD8009DF002C09EF0F6EF0EF0000E00019E6F1F
:101DE800090E9D6F00019A51D8A4FDEF0EF0FFEF88
:101DF8000EF027EF0FF093BF06EF0FF004EF0FF090
:101E080027EF0FF0000EB825D96E020EB921DA6E51
:101E18002E0EDF6EB84BB92BA307D8A0A407010E6E
:101E28009A6F27EF0FF0000EB825D96E020EB92170
:101E3800DA6E300EDF6EB84BB92BA307D8A0A40713
:101E48009607D8A0970796519711D8A42EEF0FF0B0
:101E580030EF0FF017EF0FF0000EB825D96E020E15
:101E6800B921DA6E9D51300FDF6EB84BB92BA3073D
:101E7800D8A0A407A9C053F0AAC054F0ABC055F02D
:101E8800ACC056F0ADC02EF0AEC02FF0AFC030F0F1
:101E9800B0C031F0BAC02AF0BBC02BF0BCC02CF0E7
:101EA800BDC02DF0BBEC18F02AC057F02BC058F07D
:101EB8002CC059F02DC05AF026EC30F053C0A9F0D0
:101EC80054C0AAF055C0ABF056C0ACF0BAC060F030
:101ED800BBC061F0BCC062F0BDC063F0000E000181
:101EE800646F000E656F200E666F410E676FD0EC51
:101EF8001AF060C0BAF061C0BBF062C0BCF063C049
:101F0800BDF000019207D8A09307B14BB22B9F51A7
:101F1800B15DB251800A906FA051800A9059D8B033
:101F280098EF0FF09AEF0FF0A8EF0FF0B9BFA6EFF8
:101F38000FF0B95109E14B0EB85DD8A0A6EF0FF02C
:101F4800A8EF0FF0A5EF0EF0000EB26F4F0EB16FB5
:101F5800000EB125D96E020EB221DA6E000EDF6EC8
:101F6800000E906F020E916FB851905FB951915B5E
:101F7800B1519025016EB2519121026E000E036E8F
:101F8800020E046EB8C005F0B9C006F0B7EC2FF029
:101F98000001B851B15DB86FB951B259B96FB351B9
:101FA800D8A4D9EF0FF0DCEF0FF0010EDDEF0FF042
:101FB800000EB16FB26BF8A3E4EF0FF0E6EF0FF08D
:101FC80014EF10F0F6EF0FF0B807D8A0B907000E1D
:101FD800B825D96E020EB921DA6E300EDF6EA3076E
:101FE800D8A0A407A351B15DB251800A906FA45143
:101FF800800A9059D8B003EF10F005EF10F014EFF5
:1020080010F0B851B15DB251800A906FB951800A91
:102018009059D8A012EF10F014EF10F0E8EF0FF07D
:10202800B351D8B41AEF10F01CEF10F027EF10F0EE
:10203800B807D8A0B907000EB825D96E020EB92185
:10204800DA6EB3C0DFFFB151A35FB251A45B89C0A0
:1020580012F08AC013F0000EB825146E020EB921D2
:10206800156EA3C016F0A4C017F01FEC28F01200DC
:102078008BEC30F0CBEC28F0000E0001FE6F8AEFFD
:1020880013F0E6EC31F0010E046E010E87EC26F039
:10209800740E056E7F0E066E70EC2DF0010E046E48
:1020A800020E87EC26F0AA0E056E7F0E066E70EC07
:1020B8002DF0150E0001F36F4B0EF26FBE0EE82ED9
:1020C800FED7F22FFCD7F32FFAD700F0010E046EDB
:1020D800020E87EC26F0980E056E7F0E066E70ECE9
:1020E8002DF0150E0001F36F4B0EF26FBE0EE82EA9
:1020F800FED7F22FFCD7F32FFAD700F0010E046EAB
:10210800020E87EC26F0BC0E056E7F0E066E70EC94
:102118002DF0150E0001F36F4B0EF26FBE0EE82E78
:10212800FED7F22FFCD7F32FFAD700F0E6EC31F008
:10213800010E0001FE6F8AEF13F0D59E000ED76ED8
:10214800000ED66E020EFE6F8AEF13F0010E046EBB
:10215800010E87EC26F0620E056E7F0E066E70EC9F
:102168002DF0010E046E020E87EC26F01B0E056E94
:102178007F0E066E70EC2DF0010E046E030E87ECD8
:1021880026F0DC0E056E7F0E066E70EC2DF0010E4B
:10219800046E040E87EC26F0010E056E7F0E066EA7
:1021A80070EC2DF0C8EC1FF00001FA6FFA51D8B4AA
:1021B800E0EF10F0E2EF10F08AEF13F02A0EFA19B0
:1021C800D8B4E9EF10F0EBEF10F015EF11F0FFC005
:1021D80004F0030E87EC26F00001FA51C6EC30F04B
:1021E800C80E0001F925D96EDA6A020EDA22FAC0A1
:1021F800DFFFF92BFF2B0D0EFF6505EF11F007EF41
:1022080011F08AEF13F0C80EF925D96EDA6A020EBA
:10221800DA22000EDF6E000EF96F0B0EFF6F8AEFE9
:1022280013F02A0EFA19D8A41CEF11F01EEF11F0C2
:102238008AEF13F0000EF96F0B0EFF6FE6EC31F02A
:10224800C80E0D6E020E0E6E90EC22F00DC01CF042
:102258000EC01DF00FC01EF010C01FF0010EB6EC2E
:1022680021F01CC0E8F11DC0E9F11EC0EAF11FC051
:10227800EBF1000E0201C86F000EC96F000ECA6FA5
:10228800000E436E000E446EC80E456E420E466E3A
:10229800E8C147F0E9C148F0EAC149F0EBC14AF0AA
:1022A8000EEC25F0D8B05BEF11F05DEF11F09FEF69
:1022B80011F0E6EC31F0010E046E010E87EC26F009
:1022C8003D0E056E7F0E066E70EC2DF0010E046E4D
:1022D800020E87EC26F0150E056E7F0E066E70EC6A
:1022E8002DF0010E046E030E87EC26F0CD0E056E60
:1022F8007F0E066E70EC2DF0010E046E040E87EC56
:1023080026F0290E056E7F0E066E70EC2DF03D0E40
:102318000001F36FE10EF26F3F0EE82EFED7F22FA9
:10232800FCD7F32FFAD700D0E6EC31F0020E00010B
:10233800FE6F8AEF13F0D58E030E0001FE6F8AEF51
:1023480013F0FEEC23F00001FD05D8A4AEEF11F068
:10235800B0EF11F0B6EF11F0000EFD6F040EFE6F36
:102368008AEF13F0FD51D8A4BCEF11F0BEEF11F0C5
:102378008AEF13F0050EFE6F8AEF13F0E8C153F0F1
:10238800E9C154F0EAC155F0EBC156F0ECC157F081
:10239800EDC158F0EEC159F0EFC15AF026EC30F01B
:1023A80053C0E4F154C0E5F155C0E6F156C0E7F179
:1023B800660E436EE60E446E470E456E430E466E3D
:1023C800E4C147F0E5C148F0E6C149F0E7C14AF089
:1023D8000EEC25F0D8B0F3EF11F0F5EF11F000EFA7
:1023E80012F0660E0101E46FE60EE56F470EE66F28
:1023F800430EE76F22EF12F0E4C143F0E5C144F069
:10240800E6C145F0E7C146F0660E476EE60E486E37
:10241800470E496EC30E4A6E0EEC25F0D8B017EF82
:1024280012F019EF12F022EF12F0660E0101E46FBC
:10243800E60EE56F470EE66F430EE76FE0C157F013
:10244800E1C158F0E2C159F0E3C15AF0E4C153F0D8
:10245800E5C154F0E6C155F0E7C156F026EC30F07E
:1024680053C060F054C061F055C062F056C063F0CC
:10247800000E0001646F000E656F800E666F3F0EE0
:10248800676FD0EC1AF060C0D8F161C0D9F162C0B2
:10249800DAF163C0DBF1000E436E000E446E800E6D
:1024A800456E400E466ED8C147F0D9C148F0DAC132
:1024B80049F0DBC14AF00EEC25F0D8B066EF12F017
:1024C80068EF12F073EF12F0000E0101D86F000EE2
:1024D800D96F800EDA6F400EDB6F83EF12F00101C7
:1024E800DBBF7BEF12F079EF12F083EF12F0000EF2
:1024F800D86F000ED96F000EDA6F000EDB6FE4C1E3
:10250800B1F0E5C1B2F0E6C1B3F0E7C1B4F0D8C1AB
:10251800B5F0D9C1B6F0DAC1B7F0DBC1B8F0F40E46
:102528000001B96F010EBA6FDFEC2FF0000E2E6EAE
:10253800000E2F6E000E306E400E316EF4C12AF080
:10254800F5C12BF0F6C12CF0F7C12DF0BBEC18F05B
:102558002AC043F02BC044F02CC045F02DC046F0F3
:10256800DCC147F0DDC148F0DEC149F0DFC14AF007
:102578005BEC16F043C0D4F144C0D5F145C0D6F1A8
:1025880046C0D7F1000E436E000E446E790E456EBC
:10259800430E466ED4C147F0D5C148F0D6C149F0C4
:1025A800D7C14AF00EEC25F0D8B0DDEF12F0DFEF1E
:1025B80012F0EAEF12F0000E0101D46F000ED56F91
:1025C800790ED66F430ED76FFAEF12F00101D7BF1D
:1025D800F2EF12F0F0EF12F0FAEF12F0000ED46FF3
:1025E800000ED56F000ED66F000ED76FD4C101F064
:1025F800D5C102F0D6C103F0D7C104F08BEC24F0AA
:1026080001C090FF02C091FFE4C1E0F1E5C1E1F132
:10261800E6C1E2F1E7C1E3F1D4C1DCF1D5C1DDF1F6
:10262800D6C1DEF1D7C1DFF1060E0001FE6F8AEFD9
:1026380013F0CBEC28F00B0E0001F36F260EF26FAF
:102648005D0EE82EFED7F22FFCD7F32FFAD700D075
:10265800C8EC1FF00001FA6FFA51D8B436EF13F046
:1026680038EF13F0A0EF11F02A0EFA19D8A43FEFB3
:1026780013F041EF13F08AEF13F09AEF10F0780E91
:10268800DD6F020EDE6FE70EDF6F7F0EE06FECC1CD
:10269800E1F0EDC1E2F0EEC1E3F0EFC1E4F03DECB2
:1026A8002FF0500E0001DD6F020EDE6FE70EDF6FB8
:1026B8007F0EE06FD4C1E1F0D5C1E2F0D6C1E3F0FE
:1026C800D7C1E4F03DEC2FF0000E0001DD6F030EE2
:1026D800DE6FF00EDF6F7F0EE06FFBC0E1F0E26BA4
:1026E8003DEC2FF0780E026E020E036EE2EC30F035
:1026F800500E026E020E036EE2EC30F0000E026E17
:10270800030E036EE2EC30F0A0EF11F0FE51F26F11
:10271800F36BF351000AD8B494EF13F08AEF13F077
:10272800F251000AD8B445EF10F0010AD8B4A1EF6D
:1027380010F0030AD8B4AAEF10F0010AD8B4A5EF34
:1027480011F0070AD8B4C2EF11F0010AD8B41DEF8E
:1027580013F0030AD8B443EF13F08AEF13F01EEF17
:1027680000F0C0C0D9FFC1C0DAFFDECFF6FFDDCF71
:10277800F7FF0800F550250AD8A4C5EF13F0C7EFF6
:1027880013F046EF16F0C0C0D9FFC1C0DAFFDE2A49
:10279800000EDD22000E0001F56F000EF46FF4C08C
:1027A800F8F0F669F769000EC96F000EC86F07EFF9
:1027B80014F0F883C0C0D9FFC1C0DAFFDE2A000ECA
:1027C800DD2207EF14F0000EC96F010EC86F07EF86
:1027D80014F0C0C0D9FFC1C0DAFFDECFF6FFDDCFED
:1027E800F7FF0800F550C46FC56BC551000AD8B48F
:1027F80000EF14F0E7EF13F0C451300AD8B4DDEF5E
:1028080013F0E7EF13F0C851C911D8B40EEF14F064
:1028180010EF14F0EDEF13F0C0C0D9FFC1C0DAFF1C
:10282800DECFF6FFDDCFF7FF0800F5502A0AD8A45F
:1028380020EF14F022EF14F04BEF14F0C0C0D9FFD2
:10284800C1C0DAFFDE2A000EDD22C2C0D9FFC3C034
:10285800DAFFDFCFC4F0020EDE26DFCFC5F0000EB0
:10286800DD22C4C0D9FFC5C0DAFFDECFF4F0DDCF6A
:10287800F5F0F5BF44EF14F042EF14F07FEF14F0D9
:10288800F881F46DF51FD8B0F52B7FEF14F0C0C0B8
:10289800D9FFC1C0DAFFDECF07F0DDCF08F059EC71
:1028A80023F007C0F4F008C0F5F062EF14F0C0C0E0
:1028B800D9FFC1C0DAFFDE2A000EDD22C0C0D9FF71
:1028C800C1C0DAFFDECFF6FFDDCFF7FF0800F5CF96
:1028D800C4F0D00E0001C425C56FC66BFF0EC62319
:1028E800C65109E10A0EC55DD8A07DEF14F07FEF4F
:1028F80014F05BEF14F0C0C0D9FFC1C0DAFFDECF1F
:10290800F6FFDDCFF7FF0800F5502E0AD8A48FEFA9
:1029180014F091EF14F0FFEF14F0000EF76F000EB3
:10292800F66FC0C0D9FFC1C0DAFFDE2A000EDD2273
:10293800C0C0D9FFC1C0DAFFDECFF6FFDDCFF7FF99
:102948000800F5502A0AD8A4ACEF14F0AEEF14F042
:10295800CBEF14F0C0C0D9FFC1C0DAFFDE2A000EE9
:10296800DD22C2C0D9FFC3C0DAFFDFCFC4F0020E38
:10297800DE26DFCFC5F0000EDD22C4C0D9FFC5C0FA
:10298800DAFFDECFF6F0DDCFF7F0FFEF14F0C0C0CE
:10299800D9FFC1C0DAFFDECF07F0DDCF08F059EC70
:1029A80023F007C0F6F008C0F7F0E2EF14F0C0C05B
:1029B800D9FFC1C0DAFFDE2A000EDD22C0C0D9FF70
:1029C800C1C0DAFFDECFF6FFDDCFF7FF0800F5CF95
:1029D800C4F0D00E0001C425C56FC66BFF0EC62318
:1029E800C65109E10A0EC55DD8A0FDEF14F0FFEF4E
:1029F80014F0DBEF14F0C0C0D9FFC1C0DAFFDECF9E
:102A0800D3F0DDCFD4F0D3C0F6FFD4C0F7FF080071
:102A1800F550750AD8A413EF15F015EF15F071EFFE
:102A280015F0C2C0D9FFC3C0DAFFDFCFC4F0020E71
:102A3800DE26DFCFC5F0000EDD22C4C0D9FFC5C039
:102A4800DAFFDECFC6F0DDCFC7F0C6C0CAF0C7C018
:102A5800CBF0CC6BCD6BCE6BCF6BD06BD16B010E4B
:102A6800D325C46F000ED421C56FC0C0D9FFC1C023
:102A7800DAFFC4C0DEFFC5C0DDFF5BEF15F0BEC0E6
:102A88001DF0BFC01EF0CAC01FF0CBC020F0CCC0E4
:102A980021F0CDC022F0CEC023F0CFC024F0D0C0AA
:102AA80025F0D1C026F0CAEC1EF05AEF16F0D3C0BC
:102AB800F6FFD4C0F7FF0800F550C46FC56BC551C9
:102AC800000AD8B46AEF15F071EF15F0C451750A11
:102AD800D8B443EF15F071EF15F0C0C0D9FFC1C0ED
:102AE800DAFFDECFD3F0DDCFD4F0D3C0F6FFD4C009
:102AF800F7FF0800F5CFD2F08EEF15F0D34BD42BAB
:102B0800A7EF15F06C0ED26FA7EF15F0000ED26F7D
:102B1800A7EF15F0D251C46FC56BC551000AD8B4E0
:102B280098EF15F08AEF15F0C4514C0AD8B482EF2B
:102B380015F02A0AD8B486EF15F00A0AD8B482EF3D
:102B480015F08AEF15F0D3C0F6FFD4C0F7FF0800E0
:102B5800F550660AD8A4B3EF15F0B5EF15F03DEFC0
:102B680016F0EBEF15F0C2C0D9FFC3C0DAFFDFCF14
:102B7800C4F0040EDE26DFCFC5F0000EDD22C4C08F
:102B8800D9FFC5C0DAFFDECFCAF0DECFCBF0DECF8B
:102B9800CCF0DECFCDF000EF16F0C2C0D9FFC3C035
:102BA800DAFFDFCFC4F0040EDE26DFCFC5F0000E5B
:102BB800DD22C4C0D9FFC5C0DAFFDECFCAF0DECF40
:102BC800CBF0DECFCCF0DECFCDF000EF16F0D25157
:102BD800C46FC56BC551000AD8B4F5EF15F000EF06
:102BE80016F0C4514C0AD8B4D1EF15F0200AD8B465
:102BF800B7EF15F000EF16F0010ED325C46F000EE5
:102C0800D421C56FC0C0D9FFC1C0DAFFC4C0DEFF80
:102C1800C5C0DDFF27EF16F0BEC089F0BFC08AF03F
:102C2800CAC08BF0CBC08CF0CCC08DF0CDC08EF07C
:102C3800D3C0F6FFD4C0F7FF0800F5CF8FF007EC3C
:102C48000BF05AEF16F0D3C0F6FFD4C0F7FF080018
:102C5800F550C46FC56BC551000AD8B436EF16F0ED
:102C68003DEF16F0C451660AD8B410EF16F03DEFE8
:102C780016F0C0C0D9FFC1C0DAFFDE2A000EDD227F
:102C88005AEF16F0C0C0D9FFC1C0DAFFDECFF6FF99
:102C9800DDCFF7FF0800F550026E036ABEC004F0EE
:102CA800BFC005F058EC27F03DEF16F01200465073
:102CB800800B4F6E46504624516E45AE66EF16F0B7
:102CC80068EF16F069EF16F051805150D8B46FEFE5
:102CD80016F071EF16F086EF16F05128D8A477EFAA
:102CE80016F079EF16F081EF16F0000E436E000E25
:102CF800446E000E456E000E466E458E000E466E02
:102D08008EEF16F0000E436E000E446E000E456EF8
:102D1800000E466E4A50800B506E4F505018D8B473
:102D280098EF16F09AEF16F09BEF16F04F8C4A507A
:102D38004A24506E49AEA3EF16F0A5EF16F0A6EFA1
:102D480016F050805050D8B4ACEF16F0AEEF16F035
:102D5800C3EF16F05028D8A4B4EF16F0B6EF16F06B
:102D6800BEEF16F0000E476E000E486E000E496E5C
:102D7800000E4A6E498E000E4A6ECBEF16F0000E1A
:102D8800476E000E486E000E496E000E4A6E515096
:102D9800505CD8B0D2EF16F0D4EF16F0FBEF16F077
:102DA8004FACD9EF16F0DBEF16F0DDEF16F0800E22
:102DB8004F1A51C052F050C051F052C050F043C0A9
:102DC80052F047C043F052C047F044C052F048C0E8
:102DD80044F052C048F045C052F049C045F052C0D6
:102DE80049F046C052F04AC046F052C04AF0000EC0
:102DF800526E515050C04BF04C6A4B5E000E4C5A0C
:102E08004CBE10EF17F04C5009E11A0E4B5CD8A0DD
:102E180010EF17F012EF17F049EF17F04350441076
:102E280045104610D8A41BEF17F01EEF17F0010E3F
:102E38001FEF17F0000E526E000E436E000E446E28
:102E4800000E456E000E466E50C051F052EF17F05E
:102E580052A031EF17F033EF17F039EF17F0D89091
:102E680052300109526E3BEF17F0D890523243A00E
:102E780040EF17F042EF17F043EF17F0528E463449
:102E88004632453244324332512A5050515CD8A020
:102E980050EF17F052EF17F02CEF17F04FBC57EF29
:102EA80017F059EF17F099EF17F05150D8A45FEFCA
:102EB80017F061EF17F06BEF17F0000E436E000E7E
:102EC800446E000E456E000E466EBAEF18F047507D
:102ED800432648504422495045224A50462246A09B
:102EE80078EF17F07AEF17F026EF18F052A07FEF7F
:102EF80017F081EF17F087EF17F0D89052300109DB
:102F0800526E89EF17F0D890523243A08EEF17F027
:102F180090EF17F091EF17F0528E46344632453253
:102F280044324332512A26EF18F04750435C485048
:102F38004458495045584650800A4B6E4A50800ABA
:102F48004B58D8B0AAEF17F0ACEF17F0D7EF17F03F
:102F58004350475C4B6E445048584C6E4550495856
:102F68004D6E46504A584E6EFF0E4B24436EFF0E70
:102F78004C20446EFF0E4D20456EFF0E4E20466ECF
:102F8800800E4F1A526C5250D8A4CDEF17F0CFEFE5
:102F980017F0DFEF17F0010E4326000E44224522FA
:102FA8004622DFEF17F04750435E4850445A4950D5
:102FB800455A4A50465A4350441045104610D8A422
:102FC800E8EF17F0EAEF17F01FEF18F05250D8A407
:102FD800F0EF17F0F2EF17F01FEF18F0000E436E46
:102FE800000E446E000E456E000E466EBAEF18F0E5
:102FF800D890433644364536463652AE06EF18F07A
:1030080008EF18F009EF18F0438052A00EEF18F0FF
:1030180010EF18F014EF18F0D880523616EF18F0A9
:10302800D89052365150D8B41CEF18F01EEF18F053
:103038001FEF18F0510645AE24EF18F026EF18F0F0
:10304800FCEF17F0000E506E52AE2DEF18F02FEF78
:1030580018F047EF18F052C04BF07F0E4B16D8B45B
:1030680038EF18F03AEF18F03EEF18F0010E506EF6
:1030780047EF18F043A043EF18F045EF18F047EF7B
:1030880018F03AEF18F05050D8B44DEF18F04FEF51
:1030980018F07AEF18F0010E4326000E442245225C
:1030A800462246A05AEF18F05CEF18F07AEF18F0B5
:1030B80043C04BF044C04CF045C04DF046C04EF004
:1030C8004E344E324D324C324B324BC043F04CC032
:1030D80044F04DC045F04EC046F05128D8B477EFC3
:1030E80018F079EF18F07AEF18F0512A5128D8B46F
:1030F80080EF18F082EF18F08AEF18F05150D8A43A
:1031080088EF18F08AEF18F09CEF18F0000E436E65
:10311800000E446E000E456E000E466E5150D8A447
:1031280098EF18F09AEF18F09CEF18F0000E4F6E19
:1031380051A0A1EF18F0A3EF18F0A6EF18F0458EF4
:10314800A7EF18F0459ED8905130466E4FAEAFEFBE
:1031580018F0B1EF18F0B2EF18F0468E43C043F004
:1031680044C044F045C045F046C046F012002D501A
:10317800800B366E2D502D243C6E2CAEC6EF18F009
:10318800C8EF18F0C9EF18F03C803C50D8B4CFEF26
:1031980018F0D1EF18F0E4EF18F03C28D8A4D7EFD6
:1031A80018F0D9EF18F0E1EF18F0000E2A6E000EB3
:1031B8002B6E000E2C6E000E2D6E2C8EECEF18F080
:1031C800000E2A6E000E2B6E000E2C6E000E2D6E59
:1031D8003150800B361A315031243B6E30AEF7EF48
:1031E80018F0F9EF18F0FAEF18F03B803B50D8B41C
:1031F80000EF19F002EF19F015EF19F03B28D8A4E9
:1032080008EF19F00AEF19F012EF19F0000E2E6E00
:10321800000E2F6E000E306E000E316E308E1DEFD8
:1032280019F0000E2E6E000E2F6E000E306E000E7E
:10323800316E3B50D8B423EF19F025EF19F02DEF7C
:1032480019F03C50D8A42BEF19F02DEF19F037EFF7
:1032580019F0000E2A6E000E2B6E000E2C6E000E5A
:103268002D6ECFEF1AF030502A02F3CF41F0F4CF91
:1032780042F04150376E386A396A3A6A42503D6EB8
:103288003E6A3F6A406A2F502B02F3CF41F0F4CFD9
:1032980042F041503726000E382239223A22425055
:1032A8003D26000E3E223F2240222E502C02F3CF14
:1032B80041F0F4CF42F041503726000E382239222F
:1032C8003A2242503D26000E3E223F22402239C07B
:1032D8003AF038C039F037C038F0376A2E502B0230
:1032E800F3CF41F0F4CF42F0415037264250382214
:1032F800000E3922000E3A222F502A02F3CF41F055
:10330800F4CF42F04150372642503822000E39227D
:10331800000E3A2239C03AF038C039F037C038F0D8
:10332800376A2E502A02F3CF41F0F4CF42F04150D1
:10333800372642503822000E3922000E3A223050E9
:103348002B02F3CF41F0F4CF42F041503D264250DA
:103358003E22000E3F22000E40222F502C02F3CFB7
:1033680041F0F4CF42F041503D2642503E22000E3B
:103378003F22000E402230502C02F3CF41F0F4CF10
:1033880042F04150326E4250336E346A356A34C06E
:1033980035F033C034F032C033F0326A32503D2653
:1033A80033503E2234503F223550402237C032F04D
:1033B80038C033F039C034F03AC035F0190EEAEFAE
:1033C80019F0D8903532343233323232E82EE5EF04
:1033D80019F032503D2633503E2234503F223550AA
:1033E800402239C03AF038C039F037C038F0376A6F
:1033F8003B503CC032F0336A3226000E3322820E34
:103408003224416EFF0E3320426E20EF1AF0D8901E
:103418003D363E363F3640363AAE15EF1AF017EFD6
:103428001AF018EF1AF03D80D8903736383639360A
:103438003A364106D8A042063FAE25EF1AF027EFEC
:103448001AF00BEF1AF0000E3B6E3AAE2EEF1AF0A0
:1034580030EF1AF054EF1AF0FF0E3714326EFF0EE9
:103468003814336EFF0E3914346E7F0E3A14356EED
:103478003250331034103510D8B445EF1AF047EFF6
:103488001AF04BEF1AF0010E3B6E54EF1AF03DA004
:1034980050EF1AF052EF1AF054EF1AF047EF1AF003
:1034A8003B50D8B45AEF1AF05CEF1AF080EF1AF0DC
:1034B800010E3D26000E3E223F22402240A067EF2B
:1034C8001AF069EF1AF080EF1AF03DC032F03EC0F2
:1034D80033F03FC034F040C035F035343532343243
:1034E8003332323232C03DF033C03EF034C03FF0A8
:1034F80035C040F0414A422A42BE8BEF1AF0425092
:1035080008E14128D8A08BEF1AF08DEF1AF097EF59
:103518001AF0000E3D6E000E3E6E800E3F6E7F0E5E
:10352800406EC5EF1AF042BEA4EF1AF0425006E111
:103538004104D8B0A2EF1AF0A4EF1AF0B0EF1AF0D5
:10354800000E3D6E000E3E6E000E3F6E000E406E89
:10355800000E366EC5EF1AF041C03CF0FF0E3D1666
:10356800FF0E3E167F0E3F16000E40163CA0BFEF22
:103578001AF0C1EF1AF0C2EF1AF03F8ED8903C3023
:10358800406E365040123DC02AF03EC02BF03FC07E
:103598002CF040C02DF0120000016351800B6C6FBD
:1035A80063516325736F62AFDCEF1AF0DEEF1AF038
:1035B800DFEF1AF073817351D8B4E5EF1AF0E7EF33
:1035C8001AF0FCEF1AF07329D8A4EDEF1AF0EFEF18
:1035D8001AF0F7EF1AF0000E606F000E616F000E20
:1035E800626F000E636F628F000E636F04EF1BF053
:1035F800000E606F000E616F000E626F000E636F49
:103608006751800B6C1B67516725746F66AF0FEFAE
:103618001BF011EF1BF012EF1BF074817451D8B43A
:1036280018EF1BF01AEF1BF02FEF1BF07429D8A42A
:1036380020EF1BF022EF1BF02AEF1BF0000E646F47
:10364800000E656F000E666F000E676F668F000EC6
:10365800676F37EF1BF0000E646F000E656F000E8A
:10366800666F000E676F6451651166116711D8A403
:1036780040EF1BF042EF1BF05AEF1BF0000E606F9B
:10368800000E616F000E626F000E636F800E621392
:103698007F0E63136C51631360C060F061C061F00A
:1036A80062C062F063C063F09DEF1CF07351D8A450
:1036B80060EF1BF062EF1BF06CEF1BF0000E606F09
:1036C800000E616F000E626F000E636F9DEF1CF0BD
:1036D800745173C05BF05C6A5B5E000E5C5A7F0ECF
:1036E8005B246D6F000E5C206E6F60C068F061C077
:1036F80069F062C06AF063C06BF0000E606F000E84
:10370800616F000E626F000E636F000E6F6F000E28
:10371800706F000E716F000E726F000E746FCDEF38
:103728001BF07451D8B49BEF1BF09DEF1BF0B4EF66
:103738001BF0D890683769376A376B37D89060378D
:1037480061376237633772AFACEF1BF0AEEF1BF037
:10375800AFEF1BF06081D8906F37703771377237D1
:103768006451685D6551695966516A5967516B5969
:10377800D8A0C1EF1BF0C3EF1BF0CCEF1BF0728D8C
:103788006451685F6551695B66516A5B67516B5B41
:10379800742B190E7465D3EF1BF0D5EF1BF095EF62
:1037A8001BF0685169116A116B11D8B4DEEF1BF078
:1037B800E0EF1BF0F8EF1BF06F81F8EF1BF0D890EB
:1037C800603761376237633772AFEDEF1BF0EFEFA9
:1037D8001BF0F0EF1BF06081D8906F3770377137AE
:1037E80072376D07D8A06E0762AFFDEF1BF0FFEFD1
:1037F8001BF0E3EF1BF0000E746F72AF06EF1CF0C6
:1038080008EF1CF02CEF1CF0FF0E6F155B6EFF0E1F
:1038180070155C6EFF0E71155D6E7F0E72155E6E13
:103828005B505C105D105E10D8B41DEF1CF01FEFEC
:103838001CF023EF1CF0010E746F2CEF1CF060A13C
:1038480028EF1CF02AEF1CF02CEF1CF01FEF1CF0E7
:103858007451D8B432EF1CF034EF1CF058EF1CF060
:10386800010E6027000E61236223632363A13FEFEB
:103878001CF041EF1CF058EF1CF060C05BF061C019
:103888005CF062C05DF063C05EF05E345E325D3253
:103898005C325B325BC060F05CC061F05DC062F0BE
:1038A8005EC063F06D4B6E2B6EBF63EF1CF06E5104
:1038B80008E16D29D8A063EF1CF065EF1CF070EFEC
:1038C8001CF0000E6E6F6D69000E606F000E616F68
:1038D800000E626F000E636F6EBF7DEF1CF06E51BD
:1038E80006E16D05D8B07BEF1CF07DEF1CF08BEF87
:1038F8001CF0000E6E6F000E6D6F000E606F000EF4
:10390800616F000E626F000E636F000E6C6F6DC00A
:1039180073F073A192EF1CF094EF1CF097EF1CF07A
:10392800628F98EF1CF0629FD8907331636F4EEFEF
:103938001BF0120075C093F076C094F077C095F034
:1039480078C096F079C097F07AC098F07BC099F06B
:103958007CC09AF0000E00019B6F000E9C6F000E59
:103968009D6F000E9E6F000E9F6F000EA06F000EE1
:10397800A16F000EA26F000EA46F000EA36F4DEF93
:103988001DF09BC043F09CC044F09DC045F09EC014
:1039980046F0D890A335D96EA435DA6ED890D936CA
:1039A800DA368751D9268851DA22DECF2EF0DECFDB
:1039B8002FF0DECF30F0DECF31F0A3C08FF0A4C0FF
:1039C80090F0D8908F379037D8908F379037D8901D
:1039D8008F3790378F518D25916F90518E21926F2F
:1039E800020E9125D96E000E9221DA6E02D807EFE9
:1039F8001DF00500FA6EDE50FD6EDE50FE6EF850CA
:103A0800FF6EFA50120001C02AF002C02BF003C06A
:103A18002CF004C02DF0BBEC18F02AC047F02BC0E6
:103A280048F02CC049F02DC04AF05BEC16F043C0BA
:103A38009BF044C09CF045C09DF046C09EF09FC0DE
:103A480043F0A0C044F0A1C045F0A2C046F0D89011
:103A58000001A335D96EA435DA6ED890D936DA3696
:103A68008751D9268851DA22DECF47F0DECF48F0D9
:103A7800DECF49F0DECF4AF05BEC16F043C09FF092
:103A880044C0A0F045C0A1F046C0A2F00001A34B7D
:103A9800A42B8551A35DA451800A8F6F8651800A9B
:103AA8008F59D8A05AEF1DF05CEF1DF0C5EF1CF040
:103AB8009FC001F0A0C002F0A1C003F0A2C004F0B2
:103AC800000E056E000E066E000E076E000E086EE4
:103AD80076EC28F0D8A073EF1DF075EF1DF0A4EF79
:103AE8001DF097C047F098C048F099C049F09AC0B7
:103AF8004AF093C043F094C044F095C045F096C096
:103B080046F05BEC16F043C060F044C061F045C07D
:103B180062F046C063F0000E0001646F000E656F2E
:103B2800000E666F400E676FD0EC1AF060C075F03B
:103B380061C076F062C077F063C078F0BEEF1DF028
:103B48009BC060F09CC061F09DC062F09EC063F0B5
:103B58009FC064F0A0C065F0A1C066F0A2C067F085
:103B6800D0EC1AF060C075F061C076F062C077F0F2
:103B780063C078F01200CCC185F0CDC186F0CEC10B
:103B880087F0CFC188F075C085F076C086F077C021
:103B980087F078C088F0810E0001796FFF0E7A6F88
:103BA80085C07BF086C07CF087C07DF088C07EF041
:103BB800180EE4EF1DF0D8907E337D337C337B33D1
:103BC800E82EDFEF1DF07B517925836F000E7A21F7
:103BD800846F84BFF9EF1DF0845109E1170E835DEE
:103BE800D8A0F9EF1DF0FBEF1DF005EF1EF075C032
:103BF80075F076C076F077C077F078C078F0C9EFC6
:103C08001EF084BF0AEF1EF00CEF1EF07DEF1EF0D1
:103C180083C079F0FF0E7A6FFF0E7B6F7F0E7C6F8B
:103C2800000E7D6F79671BEF1EF023EF1EF07D35C8
:103C38007D337C337B337A33792F16EF1EF07AC0CD
:103C48007FF07BC080F07CC081F07DC082F00001F5
:103C58007F518515796F805186157A6F8151871547
:103C68007B6F825188157C6F79517A117B117C1199
:103C7800D8A441EF1EF043EF1EF045EF1EF0FBEF16
:103C88001DF085C079F086C07AF087C07BF088C0C7
:103C98007CF0200E55EF1EF0D8907C337B337A33BE
:103CA8007933E82E50EF1EF079517A117B117C118F
:103CB800D8B461EF1EF063EF1EF06BEF1EF07F517A
:103CC80085278051862381518723825188237F1D30
:103CD800796F801D7A6F811D7B6F821D7C6F795192
:103CE80085177A5186177B5187177C518817C1EF42
:103CF8001EF085C079F086C07AF087C07BF088C056
:103D08007CF0200E8DEF1EF0D8907C337B337A3315
:103D18007933E82E88EF1EF079517A117B117C11E6
:103D2800D8A499EF1EF09BEF1EF0A5EF1EF0000E31
:103D3800856F000E866F000E876F000E886FC1EFCB
:103D48001EF0D8908535796F86357A6F87357B6F09
:103D580088357C6F79517A117B117C11D8B4B7EF13
:103D68001EF0B9EF1EF0C1EF1EF0000E856F000EB9
:103D7800866F800E876FBF0E886F85C075F086C00E
:103D880076F087C077F088C078F012000001F7BF9E
:103D9800D0EF1EF0D2EF1EF0D3EF1EF0F893F7BF6E
:103DA800E0EF1EF0F75106E1F605D8B0DEEF1EF0A1
:103DB800E0EF1EF0E6EF1EF0000E306E010E2F6EE3
:103DC800EAEF1EF0F6C02FF0F7C030F0F4C031F083
:103DD800F5C032F01FC033F020C034F021C035F0F8
:103DE80022C036F023C037F024C038F025C039F09F
:103DF80026C03AF0000E3C6E4F0E3B6E000E0201DC
:103E08004F6F7DEF1FF03B06D8A03C06000E3B2409
:103E1800D96E020E3C20DA6E33C001F034C002F0D5
:103E280035C003F036C004F037C005F038C006F0DE
:103E380039C007F03AC008F00A0E096E000E0A6E83
:103E4800000E0B6E000E0C6E000E0D6E000E0E6E48
:103E5800000E0F6E000E106EF0EC26F001C027F079
:103E680002C028F003C029F004C02AF005C02BF0D6
:103E780006C02CF007C02DF008C02EF02750300FD8
:103E8800DF6E2F06D8A030063106D8A0320633C020
:103E980001F034C002F035C003F036C004F037C07A
:103EA80005F038C006F039C007F03AC008F00A0E2D
:103EB800096E000E0A6E000E0B6E000E0C6E000EE0
:103EC8000D6E000E0E6E000E0F6E000E106E0FECD3
:103ED80026F001C033F002C034F003C035F004C04E
:103EE80036F005C037F006C038F007C039F008C012
:103EF8003AF03B503C10D8B484EF1FF086EF1FF027
:103F0800B7EF1FF033503410351036103710381013
:103F180039103A10D8A493EF1FF095EF1FF007EF70
:103F28001FF030BEA2EF1FF0305006E12F04D8B0CA
:103F3800A0EF1FF0A2EF1FF007EF1FF032BEADEFAA
:103F48001FF0325008E13104D8A0ADEF1FF0AFEFF9
:103F58001FF0B7EF1FF00001F8B3B5EF1FF0B7EF90
:103F68001FF007EF1FF01DC012F01EC013F0000E67
:103F78003B24146E020E3C20156E31C016F032C080
:103F880017F01FEC28F01200000E066E000E88ECE9
:103F98002EF0BDEC27F0076E040E0760D6EF1FF079
:103FA800D8EF1FF007EF20F0EAEF1FF0F0C206F09D
:103FB80007EF20F0F1C206F007EF20F0F2C206F09A
:103FC80007EF20F0F3C206F007EF20F00750046E69
:103FD800056A0550000AD8B4F4EF1FF007EF20F087
:103FE8000450000AD8B4DAEF1FF0010AD8B4DEEFA3
:103FF8001FF0030AD8B4E2EF1FF0010AD8B4E6EFC5
:104008001FF007EF20F0010E88EC2EF0BDEC27F032
:10401800076E040E076013EF20F015EF20F044EF51
:1040280020F027EF20F0F4C206F044EF20F0F5C2AC
:1040380006F044EF20F0F6C206F044EF20F0F7C295
:1040480006F044EF20F00750046E056A0550000A98
:10405800D8B431EF20F044EF20F00450000AD8B46F
:1040680017EF20F0010AD8B41BEF20F0030AD8B4E8
:104078001FEF20F0010AD8B423EF20F044EF20F01E
:10408800020E88EC2EF0BDEC27F0076E040E0760D8
:1040980050EF20F052EF20F081EF20F064EF20F095
:1040A800F8C206F081EF20F0F9C206F081EF20F0A7
:1040B800FAC206F081EF20F0FBC206F081EF20F093
:1040C8000750046E056A0550000AD8B46EEF20F058
:1040D80081EF20F00450000AD8B454EF20F0010A10
:1040E800D8B458EF20F0030AD8B45CEF20F0010AE6
:1040F800D8B460EF20F081EF20F0030E88EC2EF0AA
:10410800BDEC27F0076E040E07608DEF20F08FEFEF
:1041180020F0BEEF20F0A1EF20F0FCC206F0BEEFC9
:1041280020F0FDC206F0BEEF20F0FEC206F0BEEFA2
:1041380020F0FFC206F0BEEF20F00750046E056ABB
:104148000550000AD8B4ABEF20F0BEEF20F00450C1
:10415800000AD8B491EF20F0010AD8B495EF20F006
:10416800030AD8B499EF20F0010AD8B49DEF20F0E3
:10417800BEEF20F00650120085C043F086C044F020
:1041880087C045F088C046F075C047F076C048F053
:1041980077C049F078C04AF00EEC25F0D8B0D7EFD8
:1041A80020F0D9EF20F0F2EF20F089C043F08AC068
:1041B80044F08BC045F08CC046F075C047F076C01F
:1041C80048F077C049F078C04AF00EEC25F0D8B036
:1041D800F0EF20F0F2EF20F077EF21F089C043F004
:1041E8008AC044F08BC045F08CC046F075C047F0DB
:1041F80076C048F077C049F078C04AF00EEC25F058
:10420800D8B009EF21F00BEF21F024EF21F075C0B1
:1042180043F076C044F077C045F078C046F08DC0D2
:1042280047F08EC048F08FC049F090C04AF00EECBD
:1042380025F0D8A022EF21F024EF21F02FEF21F074
:10424800000E0001916F000E926F000E936F000E2A
:10425800946F6DEF21F075C057F076C058F077C0B5
:1042680059F078C05AF08DC053F08EC054F08FC00A
:1042780055F090C056F026EC30F053C060F054C0B2
:1042880061F055C062F056C063F089C057F08AC02B
:1042980058F08BC059F08CC05AF08DC053F08EC0C6
:1042A80054F08FC055F090C056F026EC30F053C053
:1042B80064F054C065F055C066F056C067F0D0ECA5
:1042C8001AF060C091F061C092F062C093F063C0D0
:1042D80094F091C075F092C076F093C077F094C0D6
:1042E80078F0B5EF21F085C057F086C058F087C048
:1042F80059F088C05AF075C053F076C054F077C0B2
:1043080055F078C056F026EC30F053C060F054C039
:1043180061F055C062F056C063F085C057F086C0A2
:1043280058F087C059F088C05AF089C053F08AC045
:1043380054F08BC055F08CC056F026EC30F053C0CA
:1043480064F054C065F055C066F056C067F0D0EC14
:104358001AF060C075F061C076F062C077F063C093
:1043680078F01200246E2450D8B4BDEF21F0BFEFCE
:1043780021F0E1EF21F01FBEC6EF21F0C4EF21F0DC
:10438800E1EF21F01CC020F01DC021F01EC022F07A
:104398001FC023F0201E211E221E231E202A000ECD
:1043A80021222222232220C026F021C027F022C069
:1043B80028F023C029F0E9EF21F01CC026F01DC029
:1043C80027F01EC028F01FC029F01C501D101E1019
:1043D8001F10D8A4F2EF21F0F4EF21F0FEEF21F046
:1043E800000E1C6E000E1D6E000E1E6E000E1F6E5F
:1043F8008FEF22F0960E256E08EF22F0252AD8902E
:104408002932283227322632000E2614206E000E5A
:104418002714216E000E2814226EFE0E2914236E16
:104428002050211022102310D8A41DEF22F01FEFD6
:1044380022F002EF22F02DEF22F0252A010E262687
:10444800000E272228222922D89029322832273202
:104458002632000E2614206E000E2714216E000E40
:104468002814226EFF0E2914236E205021102210CA
:104478002310D8A442EF22F044EF22F021EF22F0DB
:104488004CEF22F02506D8902636273628362936CE
:1044980028BE51EF22F053EF22F05BEF22F0020E1C
:1044A800256059EF22F05BEF22F046EF22F025B0AD
:1044B80060EF22F062EF22F063EF22F0289ED8909E
:1044C800253225C020F0216A226A236A20C023F001
:1044D800226A216A206A205026122150271222506F
:1044E8002812235029122450D8B47DEF22F07FEFF0
:1044F80022F087EF22F01FBE86EF22F084EF22F031
:1045080087EF22F0298E26C01CF027C01DF028C096
:104518001EF029C01FF01200000E186E000E196E52
:10452800000E1A6E000E1B6E000E176E000E166E31
:10453800A0EF22F00D4A0E2A0DC0D9FF0EC0DAFFF7
:10454800200EDE18D8B4ABEF22F0ADEF22F09EEFCC
:1045580022F00DC0D9FF0EC0DAFFDF50116EF70E42
:104568001124126E136AFF0E1322135009E1050E6F
:10457800125CD8A0C2EF22F0C4EF22F09EEF22F026
:10458800CEEF22F0000E176E010E166E0D4A0E2A9F
:1045980015EF23F00DC0D9FF0EC0DAFFDF50116E02
:1045A800126A1250000AD8B4DCEF22F015EF23F09B
:1045B80011502B0AD8B4CAEF22F0060AD8B4C6EFB5
:1045C80022F015EF23F00DC0D9FF0EC0DAFFDF503F
:1045D800116ED00E1124126E136AFF0E1322146A84
:1045E800156A18C001F019C002F01AC003F01BC008
:1045F80004F00A0E056E000E066E000E076E000E21
:10460800086EEDEC2DF01250015C186E1350025834
:10461800196E145003581A6E155004581B6ECAEFC1
:1046280022F00DC0D9FF0EC0DAFFDF50116ED00E98
:104638001124126E136AFF0E1322135009E10A0E99
:10464800125CD8A02AEF23F02CEF23F0E7EF22F03A
:1046580016501710D8A433EF23F035EF23F050EF9E
:1046680023F018C011F019C012F01AC013F01BC0C3
:1046780014F0111E121E131E141E112A000E1222EF
:104688001322142211C00DF012C00EF013C00FF047
:1046980014C010F058EF23F018C00DF019C00EF038
:1046A8001AC00FF01BC010F01200000E0F6E000EA3
:1046B8000E6E000E0D6E000E0C6E65EF23F0074AAD
:1046C800082A07C0F6FF08C0F7FF0800F550200ABF
:1046D800D8B471EF23F073EF23F063EF23F007C032
:1046E800F6FF08C0F7FF0800F5CF09F0F70E092418
:1046F8000A6E0B6AFF0E0B220B5009E1050E0A5CCD
:10470800D8A089EF23F08BEF23F063EF23F095EF28
:1047180023F0000E0D6E010E0C6E074A082ACAEF30
:1047280023F007C0F6FF08C0F7FF0800F550096E30
:104738000A6A0A50000AD8B4A4EF23F0CAEF23F09B
:1047480009502B0AD8B491EF23F0060AD8B48DEF9C
:1047580023F0CAEF23F00EC001F00FC002F0000EE4
:10476800046E0A0E036E10EC31F007C0F6FF08C0A5
:10477800F7FF0800F550015E000E025A300E0124C2
:104788000E6E000E02200F6E91EF23F007C0F6FFA9
:1047980008C0F7FF0800F5CF09F0D00E09240A6E0B
:1047A8000B6AFF0E0B220B5009E10A0E0A5CD8A017
:1047B800E0EF23F0E2EF23F0AFEF23F00C500D1001
:1047C800D8A4E9EF23F0EBEF23F0F9EF23F00EC0C4
:1047D80009F00FC00AF0091E0A1E094A0A2A09C070
:1047E80007F00AC008F0FDEF23F00EC007F00FC075
:1047F80008F01200000E0101EC6F000EED6F000EC4
:10480800EE6F000EEF6F000E0001766F000E756FF1
:10481800010E8FEC2FF001C01CF002C01DF01E6AC3
:104828001F6A000EB6EC21F01CC02AF01DC02BF048
:104838001EC02CF01FC02DF00A0E2E6E280E2F6EF3
:10484800A00E306E3B0E316EBBEC18F02AC0F0F1B2
:104858002BC0F1F12CC0F2F12DC0F3F1ECC143F003
:10486800EDC144F0EEC145F0EFC146F00A0E00017B
:10487800646FD70E656F230E666F3C0E676FF0C1CD
:1048880060F0F1C161F0F2C162F0F3C163F0D0EC05
:104898001AF060C047F061C048F062C049F063C0D8
:1048A8004AF05BEC16F043C0ECF144C0EDF145C0B2
:1048B800EEF146C0EFF10001754B762B76BF6EEF37
:1048C80024F0765109E1140E755DD8A06EEF24F03E
:1048D80070EF24F00CEF24F0ECC160F0EDC161F052
:1048E800EEC162F0EFC163F0000E646F000E656FF9
:1048F800A00E666F410E676FD0EC1AF060C0ECF145
:1049080061C0EDF162C0EEF163C0EFF11200033453
:1049180004340A6E0A50D8A494EF24F096EF24F0D9
:10492800A0EF24F0000E016E000E026E000E036E62
:10493800000E046E0DEF25F001C005F002C006F070
:1049480003C007F004C008F0200EB0EF24F0D890A0
:104958000832073206320532E82EABEF24F0055054
:10496800096E038EFF0E0116FF0E0216FF0E0316C8
:10497800000E0416960E0A5E0ABEC7EF24F0C5EFB5
:1049880024F0DDEF24F00A50800A970FD8B0CFEF5B
:1049980024F0D1EF24F0D3EF24F096EF24F0D89050
:1049A80004320332023201320A3ED3EF24F0F5EF2B
:1049B80024F01F0E0A64E3EF24F0E5EF24F0EDEF96
:1049C80024F096EF24F0D8900136023603360436E8
:1049D8000A060A50D8A4F3EF24F0F5EF24F0E7EF25
:1049E80024F00950D8B4FBEF24F0FDEF24F005EFD4
:1049F80025F0041E031E021E016C000E0222032273
:104A0800042201C001F002C002F003C003F004C098
:104A180004F01200000E43144B6E000E44144C6E4A
:104A2800800E45144D6E7F0E46144E6E4B504C1042
:104A38004D104E10D8A423EF25F025EF25F02DEFCB
:104A480025F0000E436E000E446E000E456E000EFB
:104A5800466E000E47144B6E000E48144C6E800EC6
:104A680049144D6E7F0E4A144E6E4B504C104D102B
:104A78004E10D8A442EF25F044EF25F04CEF25F076
:104A8800000E476E000E486E000E496E000E4A6E0C
:104A980046AE51EF25F053EF25F05CEF25F0436C5F
:104AA800441ED8B0442A451ED8B0452A800E465622
:104AB8004AAE61EF25F063EF25F06CEF25F0476C07
:104AC800481ED8B0482A491ED8B0492A800E4A56EE
:104AD800000E431A000E441A000E451A800E461A9C
:104AE800000E471A000E481A000E491A800E4A1A7C
:104AF8004750435C48504458495045584A504658D6
:104B0800D8B089EF25F08BEF25F08EEF25F0D890FF
:104B18008FEF25F0D8801200D0C10BF0D1C10CF076
:104B2800D2C10DF0D3C10EF001C00BF002C00CF0E1
:104B380003C00DF004C00EF00BC005F00CC006F069
:104B48000DC007F00EC008F0180EB0EF25F0D89091
:104B58000832073206320532E82EABEF25F0055051
:104B6800096E0A6A09500A10D8A4BDEF25F0BFEFF4
:104B780025F0DFEF25F0D8900B34056E0C34066E67
:104B88000D34076E0E34086E055006100710081015
:104B9800D8A4D1EF25F0D3EF25F0D9EF25F0000EFA
:104BA800026E020E016E0EEF26F0000E026E030E6C
:104BB800016E0EEF26F009280A10D8A4E6EF25F0BA
:104BC800E8EF25F00AEF26F00BC005F00CC006F060
:104BD8000DC007F00EC008F0090ED890053606364D
:104BE80007360836E82EF1EF25F0055006100710B5
:104BF8000810D8B402EF26F005EF26F0010E06EFF4
:104C080026F0000E016E026A0EEF26F0000E026E0C
:104C1800040E016E120020EE11F0070EDE6AE8069F
:104C2800FDE209500A100B100C100D100E100F1099
:104C38001010D8B422EF26F024EF26F076EF26F0F5
:104C4800010E196E32EF26F0D89009360A360B3667
:104C58000C360D360E360F361036192A10AE37EFD1
:104C680026F039EF26F028EF26F0D89011361236C4
:104C78001336143615361636173618360950015CB1
:104C88000A5002580B5003580C5004580D50055840
:104C98000E5006580F50075810500858D8A057EF14
:104CA80026F059EF26F06AEF26F00950015E0A5007
:104CB800025A0B50035A0C50045A0D50055A0E5004
:104CC800065A0F50075A1050085A1180D8901032BF
:104CD8000F320E320D320C320B320A320932192ED3
:104CE80039EF26F011C001F012C002F013C003F032
:104CF80014C004F015C005F016C006F017C007F080
:104D080018C008F01200056E0504D8A48EEF26F02E
:104D180090EF26F0A1EF26F004507F0F086E0838B8
:104D28000F0B066E08500F0B076E065057EC31F04C
:104D3800075057EC31F0EFEF26F0020E0518D8A413
:104D4800A8EF26F0AAEF26F0BBEF26F00450BF0F1D
:104D5800086E08380F0B066E08500F0B076E0650CA
:104D680057EC31F0075057EC31F0EFEF26F0030E17
:104D78000518D8A4C2EF26F0C4EF26F0D5EF26F028
:104D88000450930F086E08380F0B066E08500F0B6F
:104D9800076E065057EC31F0075057EC31F0EFEF43
:104DA80026F0040E0518D8A4DCEF26F0DEEF26F076
:104DB800EFEF26F00450D30F086E08380F0B066E7D
:104DC80008500F0B076E065057EC31F0075057ECA0
:104DD80031F0EFEF26F0120009500A100B100C10FA
:104DE8000D100E100F101010D8B4FDEF26F0FFEFC5
:104DF80026F047EF27F0010E116E0DEF27F0D8903F
:104E080009360A360B360C360D360E360F36103686
:104E1800112A10AE12EF27F014EF27F003EF27F056
:104E28000950015C0A5002580B5003580C500458A2
:104E38000D5005580E5006580F5007581050085876
:104E4800D8A029EF27F02BEF27F03BEF27F00950E8
:104E5800015E0A50025A0B50035A0C50045A0D5066
:104E6800055A0E50065A0F50075A1050085AD89033
:104E780010320F320E320D320C320B320A32093236
:104E8800112E14EF27F001C001F002C002F003C098
:104E980003F004C004F005C005F006C006F007C022
:104EA80007F008C008F0120004500510D8B45FEFEE
:104EB80027F061EF27F06AEF27F004500510D8A417
:104EC80068EF27F06AEF27F06FEF27F0025075ECD4
:104ED80031F0BCEF27F020EE09F00450D926055038
:104EE800DA22DE50DE10D8B47CEF27F07EEF27F010
:104EF80099EF27F020EE09F00450D9260550DA2260
:104F080010EE03F00450E1260550E222DE50E65C84
:104F1800E650800A0A6EDE50800A0A58D8B097EF29
:104F280027F099EF27F0BCEF27F020EE03F00450AC
:104F3800D9260550DA22DECF06F0DDCF07F004C00F
:104F4800D9FF05C0DAFFDECF08F0DDCF09F0065043
:104F58000824D96E07500920DA6E02C0DFFF20EE60
:104F680003F00450D9260550DA22DE2A000EDD228D
:104F7800120081B8C2EF27F0C4EF27F0D5EF27F071
:104F8800340E016EF20EE82EFED7012EFCD781A852
:104F9800D0EF27F0D2EF27F0CBEF27F0000E1EEF6F
:104FA80028F081BADAEF27F0DCEF27F0EDEF27F0F1
:104FB800340E016EF20EE82EFED7012EFCD781AA20
:104FC800E8EF27F0EAEF27F0E3EF27F0010E1EEFF6
:104FD80028F081BCF2EF27F0F4EF27F005EF28F076
:104FE800340E016EF20EE82EFED7012EFCD781ACEE
:104FF80000EF28F002EF28F0FBEF27F0020E1EEF7B
:1050080028F081BE0AEF28F00CEF28F01DEF28F0F9
:10501800340E016EF20EE82EFED7012EFCD781AEBB
:1050280018EF28F01AEF28F013EF28F0030E1EEF00
:1050380028F0040E12000001F8A125EF28F027EF50
:1050480028F031EF28F014C00BF015C00CF012C096
:105058000DF013C00EF049EC30F017BE36EF28F013
:1050680038EF28F03EEF28F016C01BF017C01CF0F0
:1050780042EF28F0000E1C6E000E1B6E000E1A6E1A
:10508800000E196E54EF28F0000E036E200E026E0B
:1050980012C004F013C005F058EC27F0194A1A2A78
:1050A8001B50195C1A50800A186E1C50800A185838
:1050B800D8A061EF28F063EF28F048EF28F000014E
:1050C800F8B169EF28F06BEF28F075EF28F014C0FD
:1050D8000BF015C00CF012C00DF013C00EF049EC27
:1050E80030F01200000E0114096E000E02140A6E50
:1050F800800E03140B6E7F0E04140C6E09500A10F8
:105108000B100C10D8A48BEF28F08DEF28F095EF3A
:1051180028F0000E016E000E026E000E036E000EE7
:10512800046E000E0514096E000E06140A6E800E39
:1051380007140B6E7F0E08140C6E09500A100B1022
:105148000C10D8A4AAEF28F0ACEF28F0B4EF28F0A0
:10515800000E056E000E066E000E076E000E086E3D
:10516800055001180FE1065002180CE1075003180A
:1051780009E108500418D8B4C4EF28F0C6EF28F0A5
:10518800C9EF28F0D890CAEF28F0D8801200A00EF6
:105198000001DD6F020EDE6FD70EDF6F7E0EE06F4F
:1051A800E8C1E1F0E9C1E2F0EAC1E3F0EBC1E4F003
:1051B8003DEC2FF0B40E0001DD6F020EDE6FEC0E39
:1051C800DF6F7E0EE06FECC1E1F0EDC1E2F0EEC101
:1051D800E3F0EFC1E4F03DEC2FF0010E046E010E98
:1051E80087EC26F0860E056E7F0E066E70EC2DF0AD
:1051F800010E046E020E87EC26F0A00E056E020E5C
:10520800066E70EC2DF0010E046E030E87EC26F08E
:10521800B40E056E020E066E70EC2DF0010E046ED3
:10522800040E87EC26F0500E056E7F0E066E70ECAD
:105238002DF01200000E096E000E0A6E000E0B6EA5
:10524800000E0C6E0550061007100810D8B42FEF8A
:1052580029F031EF29F067EF29F0010E0D6E3BEFD1
:1052680029F0D89005360636073608360D2A08AED6
:1052780040EF29F042EF29F035EF29F0D8900936B0
:105288000A360B360C360550015C0650025807509A
:10529800035808500458D8A054EF29F056EF29F0C5
:1052A8005FEF29F00550015E0650025A0750035A75
:1052B8000850045A0980D89008320732063205325D
:1052C8000D2E42EF29F009C001F00AC002F00BC010
:1052D80003F00CC004F01200460EF66E620EF76E74
:1052E800000EF86E02EEDCF010EE24F00900F5CFA7
:1052F800EEFFE550E150FAE1F60EF66E630EF76E3A
:10530800000EF86E01EEF8F010EE08F00900F5CF87
:10531800EEFFE550E150FAE11A0EF66E640EF76EF4
:10532800000EF86E0900F5CFFFF003EE00F0280E2E
:10533800EE6AE806FDE102EE00F0DC0EEE6AE80631
:10534800FDE101EECCF02C0EEE6AE806FDE100EE80
:10535800F4F00B0EEE6AE806FDE15F905F92000E36
:10536800F86E00013CEF10F095C075F096C076F02D
:1053780097C077F098C078F0000E0001796F000EA2
:105388007A6F480E7B6FC30E7C6F000E7D6F000E28
:105398007E6F480E7F6F430E806FC90E816FC80EF7
:1053A800826FC80E836F3F0E846F000E856F000EEC
:1053B800866F340E876FC20E886F000E896F000EDD
:1053C8008A6F000E8B6F000E8C6F000E8D6F000EB3
:1053D8008E6F340E8F6F420E906FC0EC20F075C048
:1053E80095F076C096F077C097F078C098F01200E4
:1053F80095C075F096C076F097C077F098C078F0B1
:10540800000E0001796F000E7A6F480E7B6FC30E95
:105418007C6F000E7D6F000E7E6F480E7F6F430E0F
:10542800806FC90E816FC80E826FC80E836F3F0EE2
:10543800846F000E856F000E866F000E876F000E5A
:10544800886F000E896F000E8A6F340E8B6F420EC4
:105458008C6F000E8D6F000E8E6FB40E8F6F420E24
:10546800906FC0EC20F075C095F076C096F077C0CC
:1054780097F078C098F0120095C075F096C076F055
:1054880097C077F098C078F0000E0001796F000E91
:105498007A6F480E7B6FC30E7C6F000E7D6F000E17
:1054A8007E6F480E7F6F430E806FC90E816FC80EE6
:1054B800826FC80E836F3F0E846F000E856F000EDB
:1054C800866F340E876F420E886F000E896F000E4C
:1054D8008A6FB40E8B6F420E8C6F000E8D6F000EAC
:1054E8008E6F070E8F6F430E906FC0EC20F075C063
:1054F80095F076C096F077C097F078C098F01200D3
:1055080095C075F096C076F097C077F098C078F09F
:10551800000E0001796F000E7A6F480E7B6FC30E84
:105528007C6F000E7D6F000E7E6F480E7F6F430EFE
:10553800806FC90E816FC80E826FC80E836F3F0ED1
:10554800846F000E856F000E866FB40E876F420E53
:10555800886F000E896F000E8A6F070E8B6F430EDF
:105568008C6F000E8D6F000E8E6F340E8F6F430E92
:10557800906FC0EC20F075C095F076C096F077C0BB
:1055880097F078C098F0120095C075F096C076F044
:1055980097C077F098C078F0000E0001796F000E80
:1055A8007A6F480E7B6FC30E7C6F000E7D6F000E06
:1055B8007E6F480E7F6F430E806FC90E816FC80ED5
:1055C800826FC80E836F3F0E846F000E856F000ECA
:1055D800866FB40E876FC20E886F000E896F000E3B
:1055E8008A6F340E8B6FC20E8C6F000E8D6F000E9B
:1055F8008E6F000E8F6F000E906FC0EC20F075C09C
:1056080095F076C096F077C097F078C098F01200C1
:1056180095C075F096C076F097C077F098C078F08E
:10562800000E0001796F000E7A6F480E7B6FC30E73
:105638007C6F000E7D6F000E7E6F480E7F6F430EED
:10564800806FC90E816FC80E826FC80E836F3F0EC0
:10565800846F000E856F000E866F070E876FC30E6E
:10566800886F000E896F000E8A6FB40E8B6FC20EA2
:105678008C6F000E8D6F000E8E6F340E8F6FC20E02
:10568800906FC0EC20F075C095F076C096F077C0AA
:1056980097F078C098F0120095C075F096C076F033
:1056A80097C077F098C078F0000E0001796F000E6F
:1056B8007A6F480E7B6FC30E7C6F000E7D6F000EF5
:1056C8007E6F480E7F6F430E806FC90E816FC80EC4
:1056D800826FC80E836F3F0E846F000E856F000EB9
:1056E800866F340E876FC30E886F000E896F000EA9
:1056F8008A6F070E8B6FC30E8C6F000E8D6F000EB6
:105708008E6FB40E8F6FC20E906FC0EC20F075C014
:1057180095F076C096F077C097F078C098F01200B0
:1057280095C075F096C076F097C077F098C078F07D
:10573800000E0001796F000E7A6F800E7B6FC00E2D
:105748007C6F000E7D6F000E7E6F800E7F6F400EA7
:10575800806FAB0E816FAA0E826FAA0E836F3E0E0A
:10576800846F000E856F000E866F800E876FBF0EE8
:10577800886F000E896F000E8A6F000E8B6F000E07
:105788008C6F000E8D6F000E8E6F800E8F6F3F0E28
:10579800906FC0EC20F075C095F076C096F077C099
:1057A80097F078C098F0120095C075F096C076F022
:1057B80097C077F098C078F0000E0001796F000E5E
:1057C8007A6F800E7B6FC00E7C6F000E7D6F000EAF
:1057D8007E6F800E7F6F400E806FAB0E816FAA0EBA
:1057E800826FAA0E836F3E0E846F000E856F000EC7
:1057F800866F000E876F000E886F000E896F000E8F
:105808008A6F800E8B6F3F0E8C6F000E8D6F000EAF
:105818008E6F000E8F6F400E906FC0EC20F075C039
:1058280095F076C096F077C097F078C098F012009F
:1058380095C075F096C076F097C077F098C078F06C
:10584800000E0001796F000E7A6F800E7B6FC00E1C
:105858007C6F000E7D6F000E7E6F800E7F6F400E96
:10586800806FAB0E816FAA0E826FAA0E836F3E0EF9
:10587800846F000E856F000E866F800E876F3F0E57
:10588800886F000E896F000E8A6F000E8B6F400EB6
:105898008C6F000E8D6F000E8E6F400E8F6F400E56
:1058A800906FC0EC20F075C095F076C096F077C088
:1058B80097F078C098F0120095C075F096C076F011
:1058C80097C077F098C078F0000E0001796F000E4D
:1058D8007A6F800E7B6FC00E7C6F000E7D6F000E9E
:1058E8007E6F800E7F6F400E806FAB0E816FAA0EA9
:1058F800826FAA0E836F3E0E846F000E856F000EB6
:10590800866F000E876F400E886F000E896F000E3D
:105918008A6F400E8B6F400E8C6F000E8D6F000EDD
:105928008E6F800E8F6F400E906FC0EC20F075C0A8
:1059380095F076C096F077C097F078C098F012008E
:1059480095C075F096C076F097C077F098C078F05B
:10595800000E0001796F000E7A6F800E7B6FC00E0B
:105968007C6F000E7D6F000E7E6F800E7F6F400E85
:10597800806FAB0E816FAA0E826FAA0E836F3E0EE8
:10598800846F000E856F000E866F000E876FC00E45
:10599800886F000E896F000E8A6F800E8B6FBF0EA6
:1059A8008C6F000E8D6F000E8E6F000E8F6F000EC5
:1059B800906FC0EC20F075C095F076C096F077C077
:1059C80097F078C098F0120095C075F096C076F000
:1059D80097C077F098C078F0000E0001796F000E3C
:1059E8007A6F800E7B6FC00E7C6F000E7D6F000E8D
:1059F8007E6F800E7F6F400E806FAB0E816FAA0E98
:105A0800826FAA0E836F3E0E846F000E856F000EA4
:105A1800866F400E876FC00E886F000E896F000E6C
:105A28008A6F000E8B6FC00E8C6F000E8D6F000E8C
:105A38008E6F800E8F6FBF0E906FC0EC20F075C018
:105A480095F076C096F077C097F078C098F012007D
:105A580095C075F096C076F097C077F098C078F04A
:105A6800000E0001796F000E7A6F800E7B6FC00EFA
:105A78007C6F000E7D6F000E7E6F800E7F6F400E74
:105A8800806FAB0E816FAA0E826FAA0E836F3E0ED7
:105A9800846F000E856F000E866F800E876FC00EB4
:105AA800886F000E896F000E8A6F400E8B6FC00ED4
:105AB8008C6F000E8D6F000E8E6F000E8F6FC00EF4
:105AC800906FC0EC20F075C095F076C096F077C066
:105AD80097F078C098F01200000E0A6E000E096E5A
