:040000002CEF00F0F1
:100008005F82F2AA0AEF00F00CEF00F02AEF00F08E
:10001800F2A411EF00F013EF00F02AEF00F0850EC4
:10002800D76EEE0ED66E010E0001F76F23EC31F09D
:10003800CECFF1F0CFCFF2F00001EF4BF02B000E56
:10004800CF6E000ECE6E25EC31F0F2945F92110067
:10005800ADEF2DF0000E0101686F000E696F800E84
:100068006A6FBF0E6B6F000E6C6F000E6D6F800EA7
:100078006E6F3F0E6F6F810E706F800E716F000E86
:10008800726F3C0E736F000E796F070E786F000E5B
:100098007A6F010E7B6F280E806F010E816F000E44
:1000A800CB6F000ECA6F8CC07CF08DC07DF08EC007
:1000B8007EF08FC07FF075EC2AF07CC092F17DC095
:1000C80093F17EC094F17FC095F18CC07CF08DC017
:1000D8007DF08EC07EF08FC07FF031EC2AF07CC0BE
:1000E80096F17DC097F17EC098F17FC099F18CC0E0
:1000F8007CF08DC07DF08EC07EF08FC07FF0EDEC7F
:1001080029F07CC09AF17DC09BF17EC09CF17FC034
:100118009DF18CC07CF08DC07DF08EC07EF08FC0CC
:100128007FF0DDEC28F07CC09EF17DC09FF17EC0A1
:10013800A0F17FC0A1F18CC07CF08DC07DF08EC095
:100148007EF08FC07FF021EC29F07CC0A2F17DC049
:10015800A3F17EC0A4F17FC0A5F18CC07CF08DC056
:100168007DF08EC07EF08FC07FF065EC29F07CC0FA
:10017800A6F17DC0A7F17EC0A8F17FC0A9F18CC00F
:100188007CF08DC07DF08EC07EF08FC07FF0A9EC32
:1001980029F07CC0AAF17DC0ABF17EC0ACF17FC074
:1001A800ADF190C07CF091C07DF092C07EF093C01C
:1001B8007FF051EC2CF07CC0AEF17DC0AFF17EC079
:1001C800B0F17FC0B1F190C07CF091C07DF092C0D9
:1001D8007EF093C07FF00DEC2CF07CC0B2F17DC0B6
:1001E800B3F17EC0B4F17FC0B5F190C07CF091C08E
:1001F8007DF092C07EF093C07FF0C9EC2BF07CC0FC
:10020800B6F17DC0B7F17EC0B8F17FC0B9F190C03A
:100218007CF091C07DF092C07EF093C07FF0B9EC85
:100228002AF07CC0BAF17DC0BBF17EC0BCF17FC0B2
:10023800BDF190C07CF091C07DF092C07EF093C07B
:100248007FF0FDEC2AF07CC0BEF17DC0BFF17EC01E
:10025800C0F17FC0C1F190C07CF091C07DF092C028
:100268007EF093C07FF041EC2BF07CC0C2F17DC0E2
:10027800C3F17EC0C4F17FC0C5F190C07CF091C0CD
:100288007DF092C07EF093C07FF085EC2BF07CC0AF
:10029800C6F17DC0C7F17EC0C8F17FC0C9F192C167
:1002A8002AF093C12BF094C12CF095C12DF0B2C166
:1002B8002EF0B3C12FF0B4C130F0B5C131F068EC05
:1002C8002EF02AC032F02BC033F02CC034F02DC0F1
:1002D80035F092C12AF093C12BF094C12CF095C14E
:1002E8002DF0AEC12EF0AFC12FF0B0C130F0B1C1CA
:1002F80031F068EC2EF02AC036F02BC037F02CC055
:1003080038F02DC039F03CEC2EF032C086F133C005
:1003180087F134C088F135C089F186C132F087C1D0
:1003280033F088C134F089C135F092C12AF093C105
:100338002BF094C12CF095C12DF0B6C12EF0B7C1A9
:100348002FF0B8C130F0B9C131F068EC2EF02AC0F6
:1003580036F02BC037F02CC038F02DC039F03CEC0B
:100368002EF032C08AF133C08BF134C08CF135C025
:100378008DF18AC132F08BC133F08CC134F08DC15C
:1003880035F092C12AF093C12BF094C12CF095C19D
:100398002DF0BAC12EF0BBC12FF0BCC130F0BDC1E9
:1003A80031F068EC2EF02AC036F02BC037F02CC0A4
:1003B80038F02DC039F03CEC2EF032C08EF133C04D
:1003C8008FF134C090F135C091F18EC132F08FC1F8
:1003D80033F090C134F091C135F096C12AF097C13D
:1003E8002BF098C12CF099C12DF0AEC12EF0AFC101
:1003F8002FF0B0C130F0B1C131F068EC2EF02AC056
:1004080036F02BC037F02CC038F02DC039F03CEC5A
:100418002EF032C064F133C065F134C066F135C0E6
:1004280067F164C132F065C133F066C134F067C169
:1004380035F096C12AF097C12BF098C12CF099C1DC
:100448002DF0B2C12EF0B3C12FF0B4C130F0B5C158
:1004580031F068EC2EF02AC036F02BC037F02CC0F3
:1004680038F02DC039F03CEC2EF032C060F133C0CA
:1004780061F134C062F135C063F160C132F061C12D
:1004880033F062C134F063C135F096C12AF097C1E8
:100498002BF098C12CF099C12DF0B6C12EF0B7C140
:1004A8002FF0B8C130F0B9C131F068EC2EF02AC095
:1004B80036F02BC037F02CC038F02DC039F03CECAA
:1004C8002EF032C01CF133C01DF134C01EF135C00E
:1004D8001FF11CC132F01DC133F01EC134F01FC121
:1004E80035F09AC12AF09BC12BF09CC12CF09DC11C
:1004F8002DF0AEC12EF0AFC12FF0B0C130F0B1C1B8
:1005080031F068EC2EF02AC036F02BC037F02CC042
:1005180038F02DC039F03CEC2EF032C020F133C059
:1005280021F134C022F135C023F120C132F021C1BC
:1005380033F022C134F023C135F09EC12AF09FC1A7
:100548002BF0A0C12CF0A1C12DF0AEC12EF0AFC18F
:100558002FF0B0C130F0B1C131F068EC2EF02AC0F4
:1005680036F02BC037F02CC038F02DC039F03CECF9
:100578002EF032C024F133C025F134C026F135C045
:1005880027F124C132F025C133F026C134F027C148
:1005980035F09AC12AF09BC12BF09CC12CF09DC16B
:1005A8002DF0B2C12EF0B3C12FF0B4C130F0B5C1F7
:1005B80031F068EC2EF02AC036F02BC037F02CC092
:1005C80038F02DC039F03CEC2EF032C082F133C047
:1005D80083F134C084F135C085F182C100F183C153
:1005E80001F184C102F185C103F1000E0101286FF8
:1005F800000E296FD80E2A6F610E2B6FCA4BCB2BBA
:1006080096C12AF097C12BF098C12CF099C12DF012
:10061800BAC12EF0BBC12FF0BCC130F0BDC131F062
:1006280068EC2EF02AC032F02BC033F02CC034F026
:100638002DC035F092C12AF093C12BF094C12CF053
:1006480095C12DF0BEC12EF0BFC12FF0C0C130F052
:10065800C1C131F068EC2EF02AC036F02BC037F05B
:100668002CC038F02DC039F03CEC2EF032C086F1A9
:1006780033C087F134C088F135C089F186C132F0C2
:1006880087C133F088C134F089C135F09AC12AF0A6
:100698009BC12BF09CC12CF09DC12DF0B6C12EF052
:1006A800B7C12FF0B8C130F0B9C131F068EC2EF005
:1006B8002AC036F02BC037F02CC038F02DC039F0E6
:1006C8003CEC2EF032C08AF133C08BF134C08CF18F
:1006D80035C08DF18AC132F08BC133F08CC134F052
:1006E8008DC135F0A2C12AF0A3C12BF0A4C12CF012
:1006F800A5C12DF0AEC12EF0AFC12FF0B0C130F0C2
:10070800B1C131F068EC2EF02AC036F02BC037F0BA
:100718002CC038F02DC039F03CEC2EF032C08EF1F0
:1007280033C08FF134C090F135C091F18EC132F0F1
:100738008FC133F090C134F091C135F09EC12AF0D9
:100748009FC12BF0A0C12CF0A1C12DF0B2C12EF099
:10075800B3C12FF0B4C130F0B5C131F068EC2EF060
:100768002AC036F02BC037F02CC038F02DC039F035
:100778003CEC2EF032C082F133C083F134C084F1F6
:1007880035C085F1000E536E010E546ED8900101EC
:10079800CA35D96ECB35DA6ED890D936DA36535099
:1007A800D9265450DA2282C1DEFF83C1DEFF84C11C
:1007B800DEFF85C1DEFFCAC153F0CBC154F0D8902B
:1007C80053365436D89053365436D8905336543618
:1007D800280E5324D96E010E5420DA6E000EDE6EF8
:1007E800000EDD6ECAC153F0CBC154F0D890533619
:1007F8005436D89053365436D89053365436020E61
:100808005326000E5422280E5324D96E010E54206C
:10081800DA6EC60EDE6E610EDD6ECA4BCB2B96C14C
:100828002AF097C12BF098C12CF099C12DF0BEC1C8
:100838002EF0BFC12FF0C0C130F0C1C131F068EC5B
:100848002EF02AC032F02BC033F02CC034F02DC06B
:1008580035F092C12AF093C12BF094C12CF095C1C8
:100868002DF0C2C12EF0C3C12FF0C4C130F0C5C1F4
:1008780031F068EC2EF02AC036F02BC037F02CC0CF
:1008880038F02DC039F03CEC2EF032C086F133C080
:1008980087F134C088F135C089F186C132F087C14B
:1008A80033F088C134F089C135F09AC12AF09BC170
:1008B8002BF09CC12CF09DC12DF0BAC12EF0BBC10C
:1008C8002FF0BCC130F0BDC131F068EC2EF02AC069
:1008D80036F02BC037F02CC038F02DC039F03CEC86
:1008E8002EF032C08AF133C08BF134C08CF135C0A0
:1008F8008DF18AC132F08BC133F08CC134F08DC1D7
:1009080035F09EC12AF09FC12BF0A0C12CF0A1C1E7
:100918002DF0B6C12EF0B7C12FF0B8C130F0B9C173
:1009280031F068EC2EF02AC036F02BC037F02CC01E
:1009380038F02DC039F03CEC2EF032C08EF133C0C7
:100948008FF134C090F135C091F18EC132F08FC172
:1009580033F090C134F091C135F0A6C12AF0A7C197
:100968002BF0A8C12CF0A9C12DF0AEC12EF0AFC15B
:100978002FF0B0C130F0B1C131F068EC2EF02AC0D0
:1009880036F02BC037F02CC038F02DC039F03CECD5
:100998002EF032C064F133C065F134C066F135C061
:1009A80067F164C132F065C133F066C134F067C1E4
:1009B80035F0A2C12AF0A3C12BF0A4C12CF0A5C127
:1009C8002DF0B2C12EF0B3C12FF0B4C130F0B5C1D3
:1009D80031F068EC2EF02AC036F02BC037F02CC06E
:1009E80038F02DC039F03CEC2EF032C082F133C023
:1009F80083F134C084F135C085F1000E536E010EC9
:100A0800546ED8900101CA35D96ECB35DA6ED890BC
:100A1800D936DA365350D9265450DA2282C1DEFF4D
:100A280083C1DEFF84C1DEFF85C1DEFFCAC153F08A
:100A3800CBC154F0D89053365436D89053365436E8
:100A4800D89053365436280E5324D96E010E5420AC
:100A5800DA6E000EDE6E000EDD6ECAC153F0CBC139
:100A680054F0D89053365436D89053365436D890DC
:100A780053365436020E5326000E5422280E5324A1
:100A8800D96E010E5420DA6EB40EDE6E610EDD6E84
:100A9800CA4BCB2B96C12AF097C12BF098C12CF0EA
:100AA80099C12DF0C2C12EF0C3C12FF0C4C130F0DE
:100AB800C5C131F068EC2EF02AC032F02BC033F0FB
:100AC8002CC034F02DC035F092C12AF093C12BF020
:100AD80094C12CF095C12DF0C6C12EF0C7C12FF0DE
:100AE800C8C130F0C9C131F068EC2EF02AC036F028
:100AF8002BC037F02CC038F02DC039F03CEC2EF06C
:100B080032C086F133C087F134C088F135C089F12D
:100B180086C132F087C133F088C134F089C135F01D
:100B28009AC12AF09BC12BF09CC12CF09DC12DF0DD
:100B3800BEC12EF0BFC12FF0C0C130F0C1C131F02D
:100B480068EC2EF02AC036F02BC037F02CC038F0F5
:100B58002DC039F03CEC2EF032C08AF133C08BF155
:100B680034C08CF135C08DF18AC132F08BC133F0BD
:100B78008CC134F08DC135F09EC12AF09FC12BF095
:100B8800A0C12CF0A1C12DF0BAC12EF0BBC12FF02D
:100B9800BCC130F0BDC131F068EC2EF02AC036F08F
:100BA8002BC037F02CC038F02DC039F03CEC2EF0BB
:100BB80032C08EF133C08FF134C090F135C091F15D
:100BC8008EC132F08FC133F090C134F091C135F04D
:100BD800A2C12AF0A3C12BF0A4C12CF0A5C12DF00D
:100BE800B6C12EF0B7C12FF0B8C130F0B9C131F09D
:100BF80068EC2EF02AC036F02BC037F02CC038F045
:100C08002DC039F03CEC2EF032C064F133C065F1F0
:100C180034C066F135C067F164C132F065C133F0A4
:100C280066C134F067C135F0AAC12AF0ABC12BF018
:100C3800ACC12CF0ADC12DF0AEC12EF0AFC12FF07C
:100C4800B0C130F0B1C131F068EC2EF02AC036F0F6
:100C58002BC037F02CC038F02DC039F03CEC2EF00A
:100C680032C060F133C061F134C062F135C063F164
:100C780060C132F061C133F062C134F063C135F054
:100C8800A6C12AF0A7C12BF0A8C12CF0A9C12DF04C
:100C9800B2C12EF0B3C12FF0B4C130F0B5C131F0FC
:100CA80068EC2EF02AC036F02BC037F02CC038F094
:100CB8002DC039F03CEC2EF032C082F133C083F104
:100CC80034C084F135C085F1000E536E010E546EA8
:100CD800D8900101CA35D96ECB35DA6ED890D9369D
:100CE800DA365350D9265450DA2282C1DEFF83C146
:100CF800DEFF84C1DEFF85C1DEFFCAC153F0CBC170
:100D080054F0D89053365436D89053365436D89039
:100D180053365436280E5324D96E010E5420DA6EF9
:100D2800000EDE6E000EDD6ECAC153F0CBC154F06A
:100D3800D89053365436D89053365436D8905336C4
:100D48005436020E5326000E5422280E5324D96E10
:100D5800010E5420DA6EEA0EDE6E610EDD6ECA4BAD
:100D6800CB2B9AC12AF09BC12BF09CC12CF09DC1C2
:100D78002DF0C2C12EF0C3C12FF0C4C130F0C5C1DF
:100D880031F068EC2EF02AC032F02BC033F02CC0C2
:100D980034F02DC035F096C12AF097C12BF098C1D8
:100DA8002CF099C12DF0C6C12EF0C7C12FF0C8C1D3
:100DB80030F0C9C131F068EC2EF02AC036F02BC0F3
:100DC80037F02CC038F02DC039F03CEC2EF032C092
:100DD80086F133C087F134C088F135C089F186C106
:100DE80032F087C133F088C134F089C135F09EC133
:100DF8002AF09FC12BF0A0C12CF0A1C12DF0BEC1DB
:100E08002EF0BFC12FF0C0C130F0C1C131F068EC85
:100E18002EF02AC036F02BC037F02CC038F02DC089
:100E280039F03CEC2EF032C08AF133C08BF134C07B
:100E38008CF135C08DF18AC132F08BC133F08CC191
:100E480034F08DC135F0A2C12AF0A3C12BF0A4C1A2
:100E58002CF0A5C12DF0BAC12EF0BBC12FF0BCC13A
:100E680030F0BDC131F068EC2EF02AC036F02BC04E
:100E780037F02CC038F02DC039F03CEC2EF032C0E1
:100E88008EF133C08FF134C090F135C091F18EC12D
:100E980032F08FC133F090C134F091C135F0AAC15E
:100EA8002AF0ABC12BF0ACC12CF0ADC12DF0B2C112
:100EB8002EF0B3C12FF0B4C130F0B5C131F068ECF9
:100EC8002EF02AC036F02BC037F02CC038F02DC0D9
:100ED80039F03CEC2EF032C064F133C065F134C017
:100EE80066F135C067F164C132F065C133F066C19F
:100EF80034F067C135F0A6C12AF0A7C12BF0A8C10C
:100F08002CF0A9C12DF0B6C12EF0B7C12FF0B8C191
:100F180030F0B9C131F068EC2EF02AC036F02BC0A1
:100F280037F02CC038F02DC039F03CEC2EF032C030
:100F380082F133C083F134C084F135C085F1000EED
:100F4800536E010E546ED8900101CA35D96ECB3557
:100F5800DA6ED890D936DA365350D9265450DA2278
:100F680082C1DEFF83C1DEFF84C1DEFF85C1DEFFF3
:100F7800CAC153F0CBC154F0D89053365436D890E8
:100F880053365436D89053365436280E5324D96ED7
:100F9800010E5420DA6E000EDE6E000EDD6ECAC140
:100FA80053F0CBC154F0D89053365436D8905336BA
:100FB8005436D89053365436020E5326000E542217
:100FC800280E5324D96E010E5420DA6EA20EDE6E5E
:100FD800610EDD6ECA4BCB2B9EC12AF09FC12BF050
:100FE800A0C12CF0A1C12DF0C2C12EF0C3C12FF0B9
:100FF800C4C130F0C5C131F068EC2EF02AC032F01F
:101008002BC033F02CC034F02DC035F09AC12AF033
:101018009BC12BF09CC12CF09DC12DF0C6C12EF0B8
:10102800C7C12FF0C8C130F0C9C131F068EC2EF04B
:101038002AC036F02BC037F02CC038F02DC039F05C
:101048003CEC2EF032C086F133C087F134C088F111
:1010580035C089F186C132F087C133F088C134F0D8
:1010680089C135F0A2C12AF0A3C12BF0A4C12CF08C
:10107800A5C12DF0BEC12EF0BFC12FF0C0C130F008
:10108800C1C131F068EC2EF02AC036F02BC037F021
:101098002CC038F02DC039F03CEC2EF032C08AF16B
:1010A80033C08BF134C08CF135C08DF18AC132F078
:1010B8008BC133F08CC134F08DC135F0AAC12AF050
:1010C800ABC12BF0ACC12CF0ADC12DF0B6C12EF0E8
:1010D800B7C12FF0B8C130F0B9C131F068EC2EF0CB
:1010E8002AC036F02BC037F02CC038F02DC039F0AC
:1010F8003CEC2EF032C08EF133C08FF134C090F149
:1011080035C091F18EC132F08FC133F090C134F007
:1011180091C135F0A6C12AF0A7C12BF0A8C12CF0C7
:10112800A9C12DF0BAC12EF0BBC12FF0BCC130F05F
:10113800BDC131F068EC2EF02AC036F02BC037F074
:101148002CC038F02DC039F03CEC2EF032C082F1C2
:1011580033C083F134C084F135C085F1000E536E7D
:10116800010E546ED8900101CA35D96ECB35DA6EAE
:10117800D890D936DA365350D9265450DA2282C15B
:10118800DEFF83C1DEFF84C1DEFF85C1DEFFCAC189
:1011980053F0CBC154F0D89053365436D8905336C8
:1011A8005436D89053365436280E5324D96E010E2F
:1011B8005420DA6E000EDE6E000EDD6ECAC153F0EA
:1011C800CBC154F0D89053365436D8905336543651
:1011D800D89053365436020E5326000E5422280E49
:1011E8005324D96E010E5420DA6E900EDE6E610E15
:1011F800DD6ECA4BCB2BA2C12AF0A3C12BF0A4C130
:101208002CF0A5C12DF0C2C12EF0C3C12FF0C4C16E
:1012180030F0C5C131F068EC2EF02AC032F02BC096
:1012280033F02CC034F02DC035F09EC12AF09FC198
:101238002BF0A0C12CF0A1C12DF0C6C12EF0C7C162
:101248002FF0C8C130F0C9C131F068EC2EF02AC0C7
:1012580036F02BC037F02CC038F02DC039F03CECFC
:101268002EF032C086F133C087F134C088F135C022
:1012780089F186C132F087C133F088C134F089C161
:1012880035F0A2C12AF0A3C12BF0A4C12CF0A5C14E
:101298002DF0C6C12EF0C7C12FF0C8C130F0C9C1AA
:1012A80031F068EC2EF02AC036F02BC037F02CC095
:1012B80038F02DC039F03CEC2EF032C08AF133C042
:1012C8008BF134C08CF135C08DF18AC132F08BC1FD
:1012D80033F08CC134F08DC135F0A6C12AF0A7C116
:1012E8002BF0A8C12CF0A9C12DF0BEC12EF0BFC1B2
:1012F8002FF0C0C130F0C1C131F068EC2EF02AC027
:1013080036F02BC037F02CC038F02DC039F03CEC4B
:101318002EF032C08EF133C08FF134C090F135C059
:1013280091F18EC132F08FC133F090C134F091C188
:1013380035F0A6C12AF0A7C12BF0A8C12CF0A9C18D
:101348002DF0C2C12EF0C3C12FF0C4C130F0C5C109
:1013580031F068EC2EF02AC036F02BC037F02CC0E4
:1013680038F02DC039F03CEC2EF032C064F133C0B7
:1013780065F134C066F135C067F164C132F065C10A
:1013880033F066C134F067C135F0A6C12AF0A7C1B1
:101398002BF0A8C12CF0A9C12DF0C6C12EF0C7C1F1
:1013A8002FF0C8C130F0C9C131F068EC2EF02AC066
:1013B80036F02BC037F02CC038F02DC039F03CEC9B
:1013C8002EF032C060F133C061F134C062F135C033
:1013D80063F160C132F061C133F062C134F063C1BE
:1013E80035F0AAC12AF0ABC12BF0ACC12CF0ADC1CD
:1013F8002DF0BAC12EF0BBC12FF0BCC130F0BDC179
:1014080031F068EC2EF02AC036F02BC037F02CC033
:1014180038F02DC039F03CEC2EF032C01CF133C04E
:101428001DF134C01EF135C01FF11CC132F01DC1C1
:1014380033F01EC134F01FC135F0AAC12AF0ABC188
:101448002BF0ACC12CF0ADC12DF0BEC12EF0BFC148
:101458002FF0C0C130F0C1C131F068EC2EF02AC0C5
:1014680036F02BC037F02CC038F02DC039F03CECEA
:101478002EF032C020F133C021F134C022F135C042
:1014880023F120C132F021C133F022C134F023C14D
:1014980035F0AAC12AF0ABC12BF0ACC12CF0ADC11C
:1014A8002DF0C6C12EF0C7C12FF0C8C130F0C9C198
:1014B80031F068EC2EF02AC036F02BC037F02CC083
:1014C80038F02DC039F03CEC2EF032C024F133C096
:1014D80025F134C026F135C027F124C132F025C1E9
:1014E80033F026C134F027C135F0AAC12AF0ABC1C8
:1014F8002BF0ACC12CF0ADC12DF0C2C12EF0C3C190
:101508002FF0C4C130F0C5C131F068EC2EF02AC00C
:1015180036F02BC037F02CC038F02DC039F03CEC39
:101528002EF032C082F133C083F134C084F135C06B
:1015380085F1000E536E010E546ED8900101CA3524
:10154800D96ECB35DA6ED890D936DA365350D926DB
:101558005450DA2282C1DEFF83C1DEFF84C1DEFF80
:1015680085C1DEFFCAC153F0CBC154F0D8905336C1
:101578005436D89053365436D89053365436280EAD
:101588005324D96E010E5420DA6E000EDE6E000E62
:10159800DD6ECAC153F0CBC154F0D89053365436DF
:1015A800D89053365436D89053365436020E5326B4
:1015B800000E5422280E5324D96E010E5420DA6EE0
:1015C8007E0EDE6E610EDD6ECA4BCB2B21EE68F00F
:1015D80000EE60F0190EDBCFEBFFE806FCE29EECB4
:1015E8001CF094C0D9FF95C0DAFF000160C0DEFF8F
:1015F80061C0DEFF62C0DEFF63C0DEFF1200000EC6
:101608000001926F6CC093F06DC094F06EC095F0BD
:101618006FC096F096BF15EF0BF013EF0BF029EFA4
:101628000BF0010E926F93C001F094C002F095C0C8
:1016380003F096C004F0D9EC2FF001C093F002C07B
:1016480094F003C095F004C096F0000E0001986F66
:10165800000E976FEBC082F0ECC083F09251D8B4C3
:1016680038EF0BF03AEF0BF04EEF0BF09251D8A495
:1016780040EF0BF042EF0BF048EF0BF0000E786FE5
:101688002B0E776F4CEF0BF0000E786F2D0E776FE7
:1016980077C092F093C001F094C002F095C003F0B7
:1016A80096C004F001EC25F001040210D8A45FEF05
:1016B8000BF061EF0BF094EF0BF000019251D8B4EE
:1016C80068EF0BF06AEF0BF073EF0BF092C000F2CB
:1016D8008207D8A08307000E986F010E976F000E3F
:1016E8009725016E020E9821026EF70E036E7F0E8B
:1016F800046E9AEC2FF00001FD0E8227FF0E832363
:101708006AC012F06BC013F0000E146E020E156E54
:1017180082C016F083C017F090EC27F034EF10F079
:1017280093C001F094C002F095C003F096C004F095
:1017380001EC25F001500210D8A4A5EF0BF0A7EF9B
:101748000BF0C7EF0BF000019251D8B4AEEF0BF0DD
:10175800B0EF0BF0B9EF0BF092C000F28207D8A0FF
:101768008307000E986F010E976F000E9725016E84
:10177800020E9821026EFB0E036E7F0E046E9AEC29
:101788002FF07FEF0BF0000E0001996F000E9A6F9B
:10179800800E9B6F3F0E9C6F000E816F000E806F56
:1017A80093C001F094C002F095C003F096C004F015
:1017B800000E056E000E066E000E076E000E086E17
:1017C800E7EC27F0D8B0EBEF0BF0EDEF0BF0CCEF38
:1017D8000CF0FAEF0BF084C099F085C09AF086C03F
:1017E8009BF087C09CF00001804B812B99C005F0CD
:1017F8009AC006F09BC007F09CC008F0000E096E66
:10180800000E0A6E200E0B6E410E0C6EBCEC18F02A
:1018180005C084F006C085F007C086F008C087F0D0
:1018280000018451935D016E85519459026E865171
:101838009559036E87519659046E47EC2DF004BEF6
:1018480031EF0CF004500310021009E1020E015CA4
:10185800D8A031EF0CF033EF0CF0EFEF0BF084C0B1
:101868001EF085C01FF086C020F087C021F093C00D
:1018780022F094C023F095C024F096C025F07FECA8
:1018880024F0D8A04AEF0CF04CEF0CF0EFEF0BF07F
:1018980000019951935D016E9A519459026E9B51C2
:1018A8009559036E9C519659046E47EC2DF004BE71
:1018B8006BEF0CF004500310021007E1020E015CFC
:1018C800D8B069EF0CF06BEF0CF0B3EF0CF099C0E7
:1018D80093F09AC094F09BC095F09CC096F0CCEF22
:1018E8000CF099C036F09AC037F09BC038F09CC015
:1018F80039F0000E3A6E000E3B6E200E3C6E410E23
:101908003D6ED1EC1AF036C099F037C09AF038C065
:101918009BF039C09CF000018007D8A0810799513D
:10192800935D016E9A519459026E9B519559036EBD
:101938009C519659046E47EC2DF004BEB1EF0CF0A3
:1019480004500310021007E1020E015CD8B0AFEF9B
:101958000CF0B1EF0CF0B3EF0CF06BEF0CF093C0A0
:101968001EF094C01FF095C020F096C021F099C0D9
:1019780022F09AC023F09BC024F09CC025F07FEC95
:1019880024F0D8A0CAEF0CF0CCEF0CF075EF0CF0F7
:1019980070C07AF07AC07BF00001EEBFD6EF0CF091
:1019A800D8EF0CF0DEEF0CF0EDC073F0EEC074F081
:1019B800E2EF0CF0000E746F060E736F73C07EF0CA
:1019C80074C07FF07E4B7F2B660E7B19D8A4EFEF97
:1019D8000CF0F1EF0CF011EF0DF081BFF8EF0CF007
:1019E800F6EF0CF004EF0DF0000E996F000E9A6FF1
:1019F800800E9B6F3F0E9C6F000E816F000E806FF4
:101A0800670E7A19D8B40BEF0DF00DEF0DF011EF4A
:101A18000DF080517E2781517F23000E916F000EBB
:101A2800906F93C088F094C089F095C08AF096C0F2
:101A38008BF099C084F09AC085F09BC086F09CC05A
:101A480087F0A2EF0DF088C036F089C037F08AC061
:101A580038F08BC039F099C03AF09AC03BF09BC07F
:101A68003CF09CC03DF0D1EC1AF036C04FF037C0C6
:101A780050F038C051F039C052F0BEEC1DF04FC0E4
:101A88008CF050C08DF051C08EF052C08FF08CC0D9
:101A980001F08DC002F08EC003F08FC004F0FCECA2
:101AA80023F001C07CF002C07DF088C02EF089C010
:101AB8002FF08AC030F08BC031F08CC009F08DC097
:101AC8000AF08EC00BF08FC00CF099C005F09AC0D8
:101AD80006F09BC007F09CC008F0BCEC18F005C0ED
:101AE80032F006C033F007C034F008C035F055ECCA
:101AF8002FF02EC088F02FC089F030C08AF031C096
:101B08008BF099C036F09AC037F09BC038F09CC073
:101B180039F0000E3A6E000E3B6E200E3C6E410E00
:101B28003D6ED1EC1AF036C099F037C09AF038C043
:101B38009BF039C09CF00001904B912B7E51905D39
:101B48009151800A596E7F51800A5958D8A0AFEF39
:101B58000DF0B1EF0DF027EF0DF099C005F09AC028
:101B680006F09BC007F09CC008F0000E096E000E3E
:101B78000A6EA00E0B6E400E0C6EBCEC18F005C081
:101B88008CF006C08DF007C08EF008C08FF088C0BA
:101B98001EF089C01FF08AC020F08BC021F08CC0D5
:101BA80022F08DC023F08EC024F08FC025F07FEC8A
:101BB80024F0D8B0E2EF0DF0E4EF0DF0EFEF0DF008
:101BC800000E00018C6F000E8D6F000E8E6F000EE0
:101BD8008F6F18EF0EF088C001F089C002F08AC03C
:101BE80003F08BC004F08CC005F08DC006F08EC0E9
:101BF80007F08FC008F0E7EC27F0D8A006EF0EF04A
:101C080008EF0EF018EF0EF000017CB10EEF0EF0A9
:101C180010EF0EF018EF0EF0000E8C6F000E8D6FA7
:101C2800000E8E6F000E8F6F93C01EF094C01FF0D1
:101C380095C020F096C021F08CC022F08DC023F012
:101C48008EC024F08FC025F05CEC16F01EC088F022
:101C58001FC089F020C08AF021C08BF088C01EF018
:101C680089C01FF08AC020F08BC021F0000E096ED9
:101C7800000E0A6E200E0B6E410E0C6E84C005F02D
:101C880085C006F086C007F087C008F0BCEC18F0E5
:101C980005C022F006C023F007C024F008C025F0D4
:101CA8007FEC24F0D8A05BEF0EF05DEF0EF086EF2E
:101CB8000EF00001804B812B84C005F085C006F032
:101CC80086C007F087C008F0000E096E000E0A6E85
:101CD800200E0B6E410E0C6EBCEC18F005C084F0A3
:101CE80006C085F007C086F008C087F0660E0001C0
:101CF8007B19D8A482EF0EF084EF0EF086EF0EF079
:101D08007E4B7F2B84C099F085C09AF086C09BF0EB
:101D180087C09CF080C071F081C072F0000E000195
:101D2800796F000E766F000E756F000E916F000EC2
:101D3800906F84EF0FF088C036F089C037F08AC002
:101D480038F08BC039F099C03AF09AC03BF09BC08C
:101D58003CF09CC03DF0D1EC1AF036C04FF037C0D3
:101D680050F038C051F039C052F0BEEC1DF04FC0F1
:101D78008CF050C08DF051C08EF052C08FF08CC0E6
:101D880001F08DC002F08EC003F08FC004F0FCECAF
:101D980023F002BEDBEF0EF0025007E10A0E015CF1
:101DA800D8B0D9EF0EF0DBEF0EF0EBEF0EF08CC0F1
:101DB80001F08DC002F08EC003F08FC004F0FCEC7F
:101DC80023F001C07CF002C07DF0F0EF0EF0000EB1
:101DD80000017D6F090E7C6F00017951D8A4F7EFDF
:101DE8000EF0F9EF0EF021EF0FF072BF00EF0FF0D9
:101DF800FEEF0EF021EF0FF0000E9725D96E020EC0
:101E08009821DA6E2E0EDF6E974B982B8207D8A09A
:101E18008307010E796F21EF0FF0000E9725D96E19
:101E2800020E9821DA6E300EDF6E974B982B8207E0
:101E3800D8A083077507D8A0760775517611D8A45E
:101E480028EF0FF02AEF0FF011EF0FF0000E972593
:101E5800D96E020E9821DA6E7C51300FDF6E974BE7
:101E6800982B8207D8A0830788C02EF089C02FF04E
:101E78008AC030F08BC031F08CC009F08DC00AF0F8
:101E88008EC00BF08FC00CF099C005F09AC006F018
:101E98009BC007F09CC008F0BCEC18F005C032F0FD
:101EA80006C033F007C034F008C035F055EC2FF009
:101EB8002EC088F02FC089F030C08AF031C08BF076
:101EC80099C036F09AC037F09BC038F09CC039F002
:101ED800000E3A6E000E3B6E200E3C6E410E3D6EBB
:101EE800D1EC1AF036C099F037C09AF038C09BF0A0
:101EF80039C09CF000017107D8A07207904B912B54
:101F08007E51905D9151800A596E7F51800A5958CF
:101F1800D8B091EF0FF093EF0FF0A1EF0FF098BF4B
:101F28009FEF0FF0985109E14B0E975DD8A09FEFF6
:101F38000FF0A1EF0FF09FEF0EF0000E916F4F0E14
:101F4800906F000E9025D96E020E9121DA6E000E68
:101F5800DF6E000E596E020E5A6E9751595E9851F7
:101F68005A5A90515924016E91515A20026E000E0E
:101F7800036E020E046E97C005F098C006F0E6ECFA
:101F88002EF000019751905D976F98519159986F75
:101F98009251D8A4D2EF0FF0D5EF0FF0010ED6EF83
:101FA8000FF0000E906F916BF3A3DDEF0FF0DFEFF2
:101FB8000FF00DEF10F0EFEF0FF09707D8A098078C
:101FC800000E9725D96E020E9821DA6E300EDF6E5C
:101FD8008207D8A083078251905D9151800A596E7B
:101FE8008351800A5958D8B0FCEF0FF0FEEF0FF07C
:101FF8000DEF10F09751905D9151800A596E9851EC
:10200800800A5958D8A00BEF10F00DEF10F0E1EF4F
:102018000FF09251D8B413EF10F015EF10F020EF35
:1020280010F09707D8A09807000E9725D96E020ED2
:102038009821DA6E92C0DFFF9051825F9151835BE5
:102048006AC012F06BC013F0000E9725146E020ED2
:102058009821156E82C016F083C017F090EC27F017
:102068001200BAEC2FF08EEC28F0000E0001F86F89
:102078008AEF13F006EC31F0010E046E010EF8EC55
:1020880025F06E0E056E7F0E066E95EC2CF0010E97
:10209800046E020EF8EC25F0A40E056E7F0E066E97
:1020A80095EC2CF0150E0001CE6F4B0ECD6FBE0EC9
:1020B800E82EFED7CD2FFCD7CE2FFAD700F0010E91
:1020C800046E020EF8EC25F0920E056E7F0E066E79
:1020D80095EC2CF0150E0001CE6F4B0ECD6FBE0E99
:1020E800E82EFED7CD2FFCD7CE2FFAD700F0010E61
:1020F800046E020EF8EC25F0B60E056E7F0E066E25
:1021080095EC2CF0150E0001CE6F4B0ECD6FBE0E68
:10211800E82EFED7CD2FFCD7CE2FFAD700F006EC4D
:1021280031F0010E0001F86F8AEF13F0D59E000E12
:10213800D76E000ED66E000EF06F000EEF6F020E17
:10214800F86F8AEF13F0010E046E010EF8EC25F01B
:102158005C0E056E7F0E066E95EC2CF0010E046E7B
:10216800020EF8EC25F0010E056E7F0E066E95EC5A
:102178002CF0010E046E030EF8EC25F0D60E056E59
:102188007F0E066E95EC2CF0010E046E040EF8EC32
:1021980025F0E70E056E7E0E066E95EC2CF0C7EC6A
:1021A8001FF00001F56FF551D8B4DDEF10F0DFEF47
:1021B80010F08AEF13F02A0EF519D8B4E6EF10F0F4
:1021C800E8EF10F012EF11F0FDC004F0030EF8EC88
:1021D80025F00001F551F5EC2FF0D00E0001F425A3
:1021E800D96EDA6A010EDA22F5C0DFFFF42BFD2B77
:1021F8000D0EFD6502EF11F004EF11F08AEF13F0F8
:10220800D00EF425D96EDA6A010EDA22000EDF6EDE
:10221800000EF46F0B0EFD6F8AEF13F02A0EF519FE
:10222800D8A419EF11F01BEF11F08AEF13F0000E8C
:10223800F46F0B0EFD6F06EC31F0D00E0D6E010E33
:102248000E6E8EEC22F00DC01CF00EC01DF00FC0FB
:102258001EF010C01FF0010EB4EC21F01CC0E7F016
:102268001DC0E8F01EC0E9F01FC0EAF0000E010131
:10227800D06F000ED16F000ED26F000E1E6E000ED2
:102288001F6EFA0E206E430E216EE7C022F0E8C0E2
:1022980023F0E9C024F0EAC025F07FEC24F0D8B0A0
:1022A80058EF11F05AEF11F09CEF11F006EC31F0F5
:1022B800010E046E010EF8EC25F0370E056E7F0E48
:1022C800066E95EC2CF0010E046E020EF8EC25F06B
:1022D800FB0E056E7E0E066E95EC2CF0010E046E5C
:1022E800030EF8EC25F0C70E056E7F0E066E95EC12
:1022F8002CF0010E046E040EF8EC25F00F0E056E9E
:102308007F0E066E95EC2CF03D0E0001CE6FE10EAF
:10231800CD6F3F0EE82EFED7CD2FFCD7CE2FFAD7A4
:1023280000D006EC31F0020E0001F86F8AEF13F0CE
:1023380006EC31F0D58E030E0001F86F8AEF13F02A
:10234800F705D8A4AAEF11F0ACEF11F0B2EF11F035
:10235800000EF76F040EF86F8AEF13F0F751D8A448
:10236800B8EF11F0BAEF11F08AEF13F0050EF86F1D
:102378008AEF13F0E7C02EF0E8C02FF0E9C030F084
:10238800EAC031F0F1C01CF0F2C01DF01E6A1F6AED
:10239800000EB4EC21F01CC032F01DC033F01EC09A
:1023A80034F01FC035F055EC2FF02EC0E3F02FC0ED
:1023B800E4F030C0E5F031C0E6F0CD0E1E6ECC0E74
:1023C8001F6EEF0E206E420E216EE3C022F0E4C0B5
:1023D80023F0E5C024F0E6C025F07FEC24F0D8B067
:1023E800F8EF11F0FAEF11F005EF12F0CD0E000141
:1023F800E36FCC0EE46FEF0EE56F420EE66F27EF4A
:1024080012F0E3C01EF0E4C01FF0E5C020F0E6C003
:1024180021F0CD0E226ECC0E236EEF0E246EC20E6E
:10242800256E7FEC24F0D8B01CEF12F01EEF12F0EE
:1024380027EF12F0CD0E0001E36FCC0EE46FEF0E24
:10244800E56FC20EE66FE3C02EF0E4C02FF0E5C0E2
:1024580030F0E6C031F0DFC032F0E0C033F0E1C068
:1024680034F0E2C035F055EC2FF02EC0D7F02FC075
:10247800D8F030C0D9F031C0DAF0FE0E1E6EFF0E73
:102488001F6EFF0E206E400E216ED7C022F0D8C0FE
:1024980023F0D9C024F0DAC025F07FEC24F0D8B0BE
:1024A80058EF12F05AEF12F065EF12F0FE0E00012D
:1024B800D76FFF0ED86FFF0ED96F400EDA6F87EF18
:1024C80012F0D7C01EF0D8C01FF0D9C020F0DAC073
:1024D80021F0FE0E226EFF0E236EFF0E246EC00E3C
:1024E800256E7FEC24F0D8B07CEF12F07EEF12F06E
:1024F80087EF12F0FE0E0001D76FFF0ED86FFF0EA8
:10250800D96FC00EDA6FE3C096F0E4C097F0E5C06B
:1025180098F0E6C099F0D7C09AF0D8C09BF0D9C01F
:102528009CF0DAC09DF0F90E00019E6F000E9F6FBF
:102538000EEC2FF0000E096E000E0A6EBC0E0B6E2C
:10254800410E0C6EF9C005F0FAC006F0FBC007F0AA
:10255800FCC008F0BCEC18F005C01EF006C01FF067
:1025680007C020F008C021F0DBC022F0DCC023F057
:10257800DDC024F0DEC025F05CEC16F01EC0D3F000
:102588001FC0D4F020C0D5F021C0D6F0000E1E6EBA
:10259800000E1F6E790E206E430E216ED3C022F0FE
:1025A800D4C023F0D5C024F0D6C025F07FEC24F0A9
:1025B800D8B0E1EF12F0E3EF12F0EEEF12F0000EF8
:1025C8000001D36F000ED46F790ED56F430ED66F0E
:1025D800FEEF12F00001D6BFF6EF12F0F4EF12F0A2
:1025E800FEEF12F0000ED36F000ED46F000ED56F01
:1025F800000ED66FD3C001F0D4C002F0D5C003F0EE
:10260800D6C004F0FCEC23F001C090FF02C091FF9B
:10261800E3C0DFF0E4C0E0F0E5C0E1F0E6C0E2F0DE
:10262800D3C0DBF0D4C0DCF0D5C0DDF0D6C0DEF01E
:10263800060E0001F86F8AEF13F08EEC28F0030EF7
:102648000001CE6F080ECD6F770EE82EFED7CD2F86
:10265800FCD7CE2FFAD7C7EC1FF00001F56FF55164
:10266800D8B439EF13F03BEF13F09FEF11F02A0EB7
:10267800F519D8A442EF13F044EF13F08AEF13F0E2
:1026880093EF10F0780EB86F020EB96FF10EBA6FB3
:102698007F0EBB6FF1C0BCF0F2C0BDF094EC2EF021
:1026A800640E0001B86F020EB96FE10EBA6F7F0EAB
:1026B800BB6FD3C0BCF0D4C0BDF0D5C0BEF0D6C08F
:1026C800BFF094EC2EF0500E0001B86F020EB96FF7
:1026D800EA0EBA6F7F0EBB6FEFC0BCF0F0C0BDF062
:1026E80094EC2EF0780E026E020E036E11EC30F0B0
:1026F800640E026E020E036E11EC30F0500E026E84
:10270800020E036E11EC30F09FEF11F0F851CD6F0F
:10271800CE6BCE51000AD8B494EF13F08AEF13F0C1
:10272800CD51000AD8B43EEF10F0010AD8B49AEFA0
:1027380010F0030AD8B4A7EF10F0010AD8B4A4EF38
:1027480011F0070AD8B4BEEF11F0010AD8B421EF8E
:1027580013F0030AD8B446EF13F08AEF13F02CEF06
:1027680000F09FC0D9FFA0C0DAFFDECFF6FFDDCFB3
:10277800F7FF0800F550250AD8A4C5EF13F0C7EFF6
:1027880013F047EF16F09FC0D9FFA0C0DAFFDE2A8A
:10279800000EDD22000E0001EC6F000EEB6FEBC0A7
:1027A800F3F0ED69EE69000EA46F000EA36F07EF5A
:1027B80014F0F3839FC0D9FFA0C0DAFFDE2A000E11
:1027C800DD2207EF14F0000EA46F010EA36F07EFD0
:1027D80014F09FC0D9FFA0C0DAFFDECFF6FFDDCF2F
:1027E800F7FF0800F5505B6E5C6A5C50000AD8B4CD
:1027F80000EF14F0E7EF13F05B50300AD8B4DDEFC8
:1028080013F0E7EF13F0A351A411D8B40EEF14F0AE
:1028180010EF14F0EDEF13F09FC0D9FFA0C0DAFF5E
:10282800DECFF6FFDDCFF7FF0800F5502A0AD8A45F
:1028380020EF14F022EF14F04BEF14F09FC0D9FFF3
:10284800A0C0DAFFDE2A000EDD22A1C0D9FFA2C097
:10285800DAFFDFCF5BF0020EDE26DFCF5CF0000E82
:10286800DD225BC0D9FF5CC0DAFFDECFEBF0DDCF45
:10287800ECF0ECBF44EF14F042EF14F07EEF14F0EC
:10288800F381EB6DEC1FD8B0EC2B7EEF14F09FC0FA
:10289800D9FFA0C0DAFFDECF07F0DDCF08F057EC94
:1028A80023F007C0EBF008C0ECF062EF14F09FC013
:1028B800D9FFA0C0DAFFDE2A000EDD229FC0D9FFB3
:1028C800A0C0DAFFDECFF6FFDDCFF7FF0800F5CFB7
:1028D8005BF0D00E5B245C6E5D6AFF0E5D225D507E
:1028E80009E10A0E5C5CD8A07CEF14F07EEF14F0CE
:1028F8005BEF14F09FC0D9FFA0C0DAFFDECFF6FF70
:10290800DDCFF7FF0800F5502E0AD8A48EEF14F09B
:1029180090EF14F0FEEF14F0000E0001EE6F000EC1
:10292800ED6F9FC0D9FFA0C0DAFFDE2A000EDD22BE
:102938009FC0D9FFA0C0DAFFDECFF6FFDDCFF7FFDB
:102948000800F5502A0AD8A4ACEF14F0AEEF14F042
:10295800CBEF14F09FC0D9FFA0C0DAFFDE2A000E2B
:10296800DD22A1C0D9FFA2C0DAFFDFCF5BF0020EE3
:10297800DE26DFCF5CF0000EDD225BC0D9FF5CC035
:10298800DAFFDECFEDF0DDCFEEF0FEEF14F09FC002
:10299800D9FFA0C0DAFFDECF07F0DDCF08F057EC93
:1029A80023F007C0EDF008C0EEF0E2EF14F09FC08E
:1029B800D9FFA0C0DAFFDE2A000EDD229FC0D9FFB2
:1029C800A0C0DAFFDECFF6FFDDCFF7FF0800F5CFB6
:1029D8005BF0D00E5B245C6E5D6AFF0E5D225D507D
:1029E80009E10A0E5C5CD8A0FCEF14F0FEEF14F0CD
:1029F800DBEF14F09FC0D9FFA0C0DAFFDECFAEF046
:102A0800DDCFAFF0AEC0F6FFAFC0F7FF0800F5505E
:102A1800750AD8A412EF15F014EF15F071EF15F040
:102A2800A1C0D9FFA2C0DAFFDFCF5BF0020EDE261D
:102A3800DFCF5CF0000EDD225BC0D9FF5CC0DAFF9F
:102A4800DECF5DF0DDCF5EF05DC0A5F05EC0A6F024
:102A58000001A76BA86BA96BAA6BAB6BAC6B010EE3
:102A6800AE255B6E000EAF215C6E9FC0D9FFA0C083
:102A7800DAFF5BC0DEFF5CC0DDFF5BEF15F09DC0D9
:102A88001DF09EC01EF0A5C01FF0A6C020F0A7C074
:102A980021F0A8C022F0A9C023F0AAC024F0ABC03E
:102AA80025F0ACC026F0C9EC1EF05BEF16F0AEC006
:102AB800F6FFAFC0F7FF0800F5505B6E5C6A5C502C
:102AC800000AD8B46AEF15F071EF15F05B50750A7B
:102AD800D8B443EF15F071EF15F09FC0D9FFA0C02F
:102AE800DAFFDECFAEF0DDCFAFF0AEC0F6FFAFC09D
:102AF800F7FF0800F5CFADF08EEF15F0AE4BAF2B1A
:102B0800A8EF15F06C0EAD6FA8EF15F0000EAD6FC5
:102B1800A8EF15F00001AD515B6E5C6A5C50000ACD
:102B2800D8B499EF15F08AEF15F05B504C0AD8B479
:102B380082EF15F02A0AD8B486EF15F00A0AD8B43D
:102B480082EF15F08AEF15F0AEC0F6FFAFC0F7FFC1
:102B58000800F550660AD8A4B4EF15F0B6EF15F0E2
:102B68003EEF16F0ECEF15F0A1C0D9FFA2C0DAFFD6
:102B7800DFCF5BF0040EDE26DFCF5CF0000EDD2237
:102B88005BC0D9FF5CC0DAFFDECFA5F0DECFA6F0D0
:102B9800DECFA7F0DECFA8F001EF16F0A1C0D9FF75
:102BA800A2C0DAFFDFCF5BF0040EDE26DFCF5CF0D9
:102BB800000EDD225BC0D9FF5CC0DAFFDECFA5F0D6
:102BC800DECFA6F0DECFA7F0DECFA8F001EF16F03B
:102BD800AD515B6E5C6A5C50000AD8B4F6EF15F034
:102BE80001EF16F05B504C0AD8B4D2EF15F0200A6A
:102BF800D8B4B8EF15F001EF16F0010EAE255B6EF4
:102C0800000EAF215C6E9FC0D9FFA0C0DAFF5BC089
:102C1800DEFF5CC0DDFF28EF16F09DC06AF09EC0A5
:102C28006BF0A5C06CF0A6C06DF0A7C06EF0A8C090
:102C38006FF0AEC0F6FFAFC0F7FF0800F5CF70F039
:102C480003EC0BF05BEF16F0AEC0F6FFAFC0F7FF7A
:102C58000800F5505B6E5C6A5C50000AD8B437EF28
:102C680016F03EEF16F05B50660AD8B411EF16F076
:102C78003EEF16F09FC0D9FFA0C0DAFFDE2A000E93
:102C8800DD225BEF16F09FC0D9FFA0C0DAFFDECFD0
:102C9800F6FFDDCFF7FF0800F550026E036A9DC00E
:102CA80004F09EC005F0C9EC26F03EEF16F01200C5
:102CB8002150800B2A6E215021242C6E20AE67EF04
:102CC80016F069EF16F06AEF16F02C802C50D8B485
:102CD80070EF16F072EF16F087EF16F02C28D8A4D4
:102CE80078EF16F07AEF16F082EF16F0000E1E6EEF
:102CF800000E1F6E000E206E000E216E208E000E3C
:102D0800216E8FEF16F0000E1E6E000E1F6E000E65
:102D1800206E000E216E2550800B2B6E2A502B182A
:102D2800D8B499EF16F09BEF16F09CEF16F02A8CAA
:102D3800255025242B6E24AEA4EF16F0A6EF16F02E
:102D4800A7EF16F02B802B50D8B4ADEF16F0AFEFED
:102D580016F0C4EF16F02B28D8A4B5EF16F0B7EF8D
:102D680016F0BFEF16F0000E226E000E236E000E56
:102D7800246E000E256E248E000E256ECCEF16F004
:102D8800000E226E000E236E000E246E000E256EBD
:102D98002C502B5CD8B0D3EF16F0D5EF16F0FCEF23
:102DA80016F02AACDAEF16F0DCEF16F0DEEF16F0CC
:102DB800800E2A1A2CC02DF02BC02CF02DC02BF021
:102DC8001EC02DF022C01EF02DC022F01FC02DF015
:102DD80023C01FF02DC023F020C02DF024C020F008
:102DE8002DC024F021C02DF025C021F02DC025F0E4
:102DF800000E2D6E2C502BC026F0276A265E000E82
:102E0800275A27BE11EF17F0275009E11A0E265C42
:102E1800D8A011EF17F013EF17F04AEF17F01E5074
:102E28001F1020102110D8A41CEF17F01FEF17F067
:102E3800010E20EF17F0000E2D6E000E1E6E000E14
:102E48001F6E000E206E000E216E2BC02CF053EF6B
:102E580017F02DA032EF17F034EF17F03AEF17F014
:102E6800D8902D3001092D6E3CEF17F0D8902D32F7
:102E78001EA041EF17F043EF17F044EF17F02D8E27
:102E88002134213220321F321E322C2A2B502C5C46
:102E9800D8A051EF17F053EF17F02DEF17F02ABC19
:102EA80058EF17F05AEF17F09AEF17F02C50D8A4F4
:102EB80060EF17F062EF17F06CEF17F0000E1E6E60
:102EC800000E1F6E000E206E000E216EBBEF18F074
:102ED80022501E2623501F22245020222550212212
:102EE80021A079EF17F07BEF17F027EF18F02DA04E
:102EF80080EF17F082EF17F088EF17F0D8902D3099
:102F080001092D6E8AEF17F0D8902D321EA08FEF91
:102F180017F091EF17F092EF17F02D8E2134213230
:102F280020321F321E322C2A27EF18F022501E5C46
:102F380023501F58245020582150800A266E2550AF
:102F4800800A2658D8B0ABEF17F0ADEF17F0D8EFDE
:102F580017F01E50225C266E1F502358276E2050F3
:102F68002458286E21502558296EFF0E26241E6EDF
:102F7800FF0E27201F6EFF0E2820206EFF0E29202F
:102F8800216E800E2A1A2D6C2D50D8A4CEEF17F082
:102F9800D0EF17F0E0EF17F0010E1E26000E1F22EB
:102FA80020222122E0EF17F022501E5E23501F5AE4
:102FB8002450205A2550215A1E501F10201021102D
:102FC800D8A4E9EF17F0EBEF17F020EF18F02D5029
:102FD800D8A4F1EF17F0F3EF17F020EF18F0000E78
:102FE8001E6E000E1F6E000E206E000E216EBBEFCF
:102FF80018F0D8901E361F36203621362DAE07EF32
:1030080018F009EF18F00AEF18F01E802DA00FEF46
:1030180018F011EF18F015EF18F0D8802D3617EFCB
:1030280018F0D8902D362C50D8B41DEF18F01FEF9B
:1030380018F020EF18F02C0620AE25EF18F027EF37
:1030480018F0FDEF17F0000E2B6E2DAE2EEF18F0D6
:1030580030EF18F048EF18F02DC026F07F0E261636
:10306800D8B439EF18F03BEF18F03FEF18F0010E25
:103078002B6E48EF18F01EA044EF18F046EF18F03A
:1030880048EF18F03BEF18F02B50D8B44EEF18F07B
:1030980050EF18F07BEF18F0010E1E26000E1F22CD
:1030A8002022212221A05BEF18F05DEF18F07BEFC2
:1030B80018F01EC026F01FC027F020C028F021C03D
:1030C80029F02934293228322732263226C01EF028
:1030D80027C01FF028C020F029C021F02C28D8B420
:1030E80078EF18F07AEF18F07BEF18F02C2A2C28DC
:1030F800D8B481EF18F083EF18F08BEF18F02C504C
:10310800D8A489EF18F08BEF18F09DEF18F0000E97
:103118001E6E000E1F6E000E206E000E216E2C50CB
:10312800D8A499EF18F09BEF18F09DEF18F0000E57
:103138002A6E2CA0A2EF18F0A4EF18F0A7EF18F051
:10314800208EA8EF18F0209ED8902C30216E2AAE41
:10315800B0EF18F0B2EF18F0B3EF18F0218E1EC0E0
:103168001EF01FC01FF020C020F021C021F0120067
:103178000850800B116E08500824176E07AEC7EF71
:1031880018F0C9EF18F0CAEF18F017801750D8B424
:10319800D0EF18F0D2EF18F0E5EF18F01728D8A400
:1031A800D8EF18F0DAEF18F0E2EF18F0000E056E1D
:1031B800000E066E000E076E000E086E078EEDEF0D
:1031C80018F0000E056E000E066E000E076E000E5B
:1031D800086E0C50800B111A0C500C24166E0BAE96
:1031E800F8EF18F0FAEF18F0FBEF18F01680165009
:1031F800D8B401EF19F003EF19F016EF19F01628FB
:10320800D8A409EF19F00BEF19F013EF19F0000E1D
:10321800096E000E0A6E000E0B6E000E0C6E0B8E01
:103228001EEF19F0000E096E000E0A6E000E0B6EEE
:10323800000E0C6E1650D8B424EF19F026EF19F0D2
:103248002EEF19F01750D8A42CEF19F02EEF19F023
:1032580038EF19F0000E056E000E066E000E076EB0
:10326800000E086ED0EF1AF00B500502F3CF1CF0D9
:10327800F4CF1DF01C50126E136A146A156A1D50A3
:10328800186E196A1A6A1B6A0A500602F3CF1CF0F4
:10329800F4CF1DF01C501226000E13221422152202
:1032A8001D501826000E19221A221B220950070247
:1032B800F3CF1CF0F4CF1DF01C501226000E132281
:1032C800142215221D501826000E19221A221B221C
:1032D80014C015F013C014F012C013F0126A09508C
:1032E8000602F3CF1CF0F4CF1DF01C5012261D501F
:1032F8001322000E1422000E15220A500502F3CFE5
:103308001CF0F4CF1DF01C5012261D501322000E85
:103318001422000E152214C015F013C014F012C0A8
:1033280013F0126A09500502F3CF1CF0F4CF1DF018
:103338001C5012261D501322000E1422000E1522B6
:103348000B500602F3CF1CF0F4CF1DF01C501826CA
:103358001D501922000E1A22000E1B220A500702C5
:10336800F3CF1CF0F4CF1DF01C5018261D50192265
:10337800000E1A22000E1B220B500702F3CF1CF07E
:10338800F4CF1DF01C500D6E1D500E6E0F6A106AA2
:103398000FC010F00EC00FF00DC00EF00D6A0D50EA
:1033A80018260E5019220F501A2210501B2212C034
:1033B8000DF013C00EF014C00FF015C010F0190E68
:1033C800EBEF19F0D89010320F320E320D32E82E92
:1033D800E6EF19F00D5018260E5019220F501A2238
:1033E80010501B2214C015F013C014F012C013F0B3
:1033F800126A165017C00DF00E6A0D26000E0E2226
:10340800820E0D241C6EFF0E0E201D6E21EF1AF089
:10341800D890183619361A361B3615AE16EF1AF02C
:1034280018EF1AF019EF1AF01880D89012361336E0
:10343800143615361C06D8A01D061AAE26EF1AF04B
:1034480028EF1AF00CEF1AF0000E166E15AE2FEFDB
:103458001AF031EF1AF055EF1AF0FF0E12140D6E34
:10346800FF0E13140E6EFF0E14140F6E7F0E15143C
:10347800106E0D500E100F101010D8B446EF1AF041
:1034880048EF1AF04CEF1AF0010E166E55EF1AF0CD
:1034980018A051EF1AF053EF1AF055EF1AF048EF51
:1034A8001AF01650D8B45BEF1AF05DEF1AF081EFFE
:1034B8001AF0010E1826000E19221A221B221BA030
:1034C80068EF1AF06AEF1AF081EF1AF018C00DF0E1
:1034D80019C00EF01AC00FF01BC010F010341032D3
:1034E8000F320E320D320DC018F00EC019F00FC099
:1034F8001AF010C01BF01C4A1D2A1DBE8CEF1AF0D2
:103508001D5008E11C28D8A08CEF1AF08EEF1AF095
:1035180098EF1AF0000E186E000E196E800E1A6ED3
:103528007F0E1B6EC6EF1AF01DBEA5EF1AF01D50D8
:1035380006E11C04D8B0A3EF1AF0A5EF1AF0B1EF1A
:103548001AF0000E186E000E196E000E1A6E000E9C
:103558001B6E000E116EC6EF1AF01CC017F0FF0E9E
:103568001816FF0E19167F0E1A16000E1B1617A036
:10357800C0EF1AF0C2EF1AF0C3EF1AF01A8ED89003
:1035880017301B6E11501B1218C005F019C006F039
:103598001AC007F01BC008F012003950800B466EA5
:1035A800395039244D6E38AEDCEF1AF0DEEF1AF0E0
:1035B800DFEF1AF04D804D50D8B4E5EF1AF0E7EF81
:1035C8001AF0FCEF1AF04D28D8A4EDEF1AF0EFEF3F
:1035D8001AF0F7EF1AF0000E366E000E376E000E76
:1035E800386E000E396E388E000E396E04EF1BF0FF
:1035F800000E366E000E376E000E386E000E396EF5
:103608003D50800B461A3D503D244E6E3CAE0FEFA8
:103618001BF011EF1BF012EF1BF04E804E50D8B488
:1036280018EF1BF01AEF1BF02FEF1BF04E28D8A451
:1036380020EF1BF022EF1BF02AEF1BF0000E3A6E72
:10364800000E3B6E000E3C6E000E3D6E3C8E000E72
:103658003D6E37EF1BF0000E3A6E000E3B6E000E0B
:103668003C6E000E3D6E3A503B103C103D10D8A405
:1036780040EF1BF042EF1BF05AEF1BF0000E366EC6
:10368800000E376E000E386E000E396E800E38123E
:103698007F0E39124650391236C036F037C037F02F
:1036A80038C038F039C039F09DEF1CF04D50D8A41F
:1036B80060EF1BF062EF1BF06CEF1BF0000E366E34
:1036C800000E376E000E386E000E396E9DEF1CF03E
:1036D8004E504DC03EF03F6A3E5E000E3F5A7F0E90
:1036E8003E24476E000E3F20486E36C042F037C079
:1036F80043F038C044F039C045F0000E366E000E75
:10370800376E000E386E000E396E000E496E000ED0
:103718004A6E000E4B6E000E4C6E000E4E6ECDEFD4
:103728001BF04E50D8B49BEF1BF09DEF1BF0B4EF8D
:103738001BF0D8904236433644364536D890363654
:103748003736383639364CAEACEF1BF0AEEF1BF0DF
:10375800AFEF1BF03680D89049364A364B364C3698
:103768003A50425C3B5043583C5044583D504558B1
:10377800D8A0C1EF1BF0C3EF1BF0CCEF1BF04C8CB3
:103788003A50425E3B50435A3C50445A3D50455A89
:103798004E2A190E4E64D3EF1BF0D5EF1BF095EFB0
:1037A8001BF04250431044104510D8B4DEEF1BF014
:1037B800E0EF1BF0F8EF1BF04980F8EF1BF0D89012
:1037C80036363736383639364CAEEDEF1BF0EFEF7C
:1037D8001BF0F0EF1BF03680D89049364A364B364E
:1037E8004C364706D8A0480638AEFDEF1BF0FFEF71
:1037F8001BF0E3EF1BF0000E4E6E4CAE06EF1CF014
:1038080008EF1CF02CEF1CF0FF0E49143E6EFF0E63
:103818004A143F6EFF0E4B14406E7F0E4C14416EDF
:103828003E503F1040104110D8B41DEF1CF01FEF60
:103838001CF023EF1CF0010E4E6E2CEF1CF036A08E
:1038480028EF1CF02AEF1CF02CEF1CF01FEF1CF0E7
:103858004E50D8B432EF1CF034EF1CF058EF1CF087
:10386800010E3626000E37223822392239A03FEFC2
:103878001CF041EF1CF058EF1CF036C03EF037C08A
:103888003FF038C040F039C041F041344132403255
:103898003F323E323EC036F03FC037F040C038F0CD
:1038A80041C039F0474A482A48BE63EF1CF04850E7
:1038B80008E14728D8A063EF1CF065EF1CF070EF13
:1038C8001CF0000E486E4768000E366E000E376E0C
:1038D800000E386E000E396E48BE7DEF1CF0485061
:1038E80006E14704D8B07BEF1CF07DEF1CF08BEFAE
:1038F8001CF0000E486E000E476E000E366E000E6D
:10390800376E000E386E000E396E000E466E47C0D8
:103918004DF04DA092EF1CF094EF1CF097EF1CF0C7
:10392800388E98EF1CF0389ED8904D30396E4EEF97
:103938001BF0120060C07AF061C07BF062C07CF0BE
:1039480063C07DF064C07EF065C07FF066C080F023
:1039580067C081F0000E0001826F000E836F000EB9
:10396800846F000E856F000E866F000E876F000E45
:10397800886F000E896F000E8B6F000E8A6F4DEFF7
:103988001DF082C01EF083C01FF084C020F085C0E7
:1039980021F0D8908A35D96E8B35DA6ED890D93621
:1039A800DA367251D9267351DA22DECF09F0DECF2A
:1039B8000AF0DECF0BF0DECF0CF08AC04FF08BC0E0
:1039C80050F0D8904F365036D8904F365036D89061
:1039D8004F3650364F507825516E50507921526EDF
:1039E800020E5124D96E000E5220DA6E02D807EF6B
:1039F8001DF00500FA6EDE50FD6EDE50FE6EF850CA
:103A0800FF6EFA50120001C005F002C006F003C0B4
:103A180007F004C008F0BCEC18F005C022F006C09E
:103A280023F007C024F008C025F05CEC16F01EC097
:103A380082F01FC083F020C084F021C085F086C0CA
:103A48001EF087C01FF088C020F089C021F0D890F0
:103A580000018A35D96E8B35DA6ED890D936DA36C8
:103A68007251D9267351DA22DECF22F0DECF23F04D
:103A7800DECF24F0DECF25F05CEC16F01EC086F019
:103A88001FC087F020C088F021C089F000018A4B50
:103A98008B2B70518A5D8B51800A4F6E7151800A51
:103AA8004F58D8A05AEF1DF05CEF1DF0C5EF1CF081
:103AB80086C001F087C002F088C003F089C004F016
:103AC800000E056E000E066E000E076E000E086EE4
:103AD800E7EC27F0D8A073EF1DF075EF1DF0A3EF0A
:103AE8001DF07EC022F07FC023F080C024F081C08A
:103AF80025F07AC01EF07BC01FF07CC020F07DC08E
:103B080021F05CEC16F01EC036F01FC037F020C064
:103B180038F021C039F0000E3A6E000E3B6E000EF0
:103B28003C6E400E3D6ED1EC1AF036C060F037C0E6
:103B380061F038C062F039C063F0BDEF1DF082C09B
:103B480036F083C037F084C038F085C039F086C0BD
:103B58003AF087C03BF088C03CF089C03DF0D1EC1A
:103B68001AF036C060F037C061F038C062F039C072
:103B780063F01200CCC166F0CDC167F0CEC168F029
:103B8800CFC169F04FC066F050C067F051C068F00F
:103B980052C069F0810E536EFF0E546E66C055F028
:103BA80067C056F068C057F069C058F0180EE2EFC9
:103BB8001DF0D8905832573256325532E82EDDEF84
:103BC8001DF0555053240001646F000E5420656F9A
:103BD80065BFF8EF1DF0655109E1170E645DD8A0C7
:103BE800F8EF1DF0FAEF1DF004EF1EF04FC04FF094
:103BF80050C050F051C051F052C052F0C8EF1EF002
:103C080065BF09EF1EF00BEF1EF07CEF1EF064C0DD
:103C180053F0FF0E546EFF0E556E7F0E566E000E5B
:103C2800576E53661AEF1EF022EF1EF057345732C4
:103C3800563255325432532E15EF1EF054C060F0F0
:103C480055C061F056C062F057C063F00001605182
:103C58006615536E61516715546E62516815556E3D
:103C680063516915566E5350541055105610D8A408
:103C780040EF1EF042EF1EF044EF1EF0FAEF1DF089
:103C880066C053F067C054F068C055F069C056F07C
:103C9800200E54EF1EF0D89056325532543253321B
:103CA800E82E4FEF1EF05350541055105610D8B44C
:103CB80060EF1EF062EF1EF06AEF1EF0605166279B
:103CC800615167236251682363516923601D536EF4
:103CD800611D546E621D556E631D566E53506617F6
:103CE800545067175550681756506917C0EF1EF0A3
:103CF80066C053F067C054F068C055F069C056F00C
:103D0800200E8CEF1EF0D890563255325432533272
:103D1800E82E87EF1EF05350541055105610D8A4B3
:103D280098EF1EF09AEF1EF0A4EF1EF0000E666FDB
:103D3800000E676F000E686F000E696FC0EF1EF00F
:103D4800D8906635536E6735546E6835556E69354B
:103D5800566E5350541055105610D8B4B6EF1EF086
:103D6800B8EF1EF0C0EF1EF0000E666F000E676F12
:103D7800800E686FBF0E696F66C04FF067C050F065
:103D880068C051F069C052F012000001EEBFCFEFD9
:103D98001EF0D1EF1EF0D2EF1EF0F393EEBFDFEF6F
:103DA8001EF0EE5106E1ED05D8B0DDEF1EF0DFEFB5
:103DB8001EF0E5EF1EF0000E306E010E2F6EE9EFDB
:103DC8001EF0EDC02FF0EEC030F0EBC031F0ECC0CB
:103DD80032F01FC033F020C034F021C035F022C0CB
:103DE80036F023C037F024C038F025C039F026C09B
:103DF8003AF0000E3C6E4F0E3B6E000E02014F6F04
:103E08007CEF1FF03B06D8A03C06000E3B24D96E81
:103E1800020E3C20DA6E33C001F034C002F035C027
:103E280003F036C004F037C005F038C006F039C0DA
:103E380007F03AC008F00A0E096E000E0A6E000E6E
:103E48000B6E000E0C6E000E0D6E000E0E6E000E48
:103E58000F6E000E106E61EC26F001C027F002C054
:103E680028F003C029F004C02AF005C02BF006C0D2
:103E78002CF007C02DF008C02EF02750300FDF6E51
:103E88002F06D8A030063106D8A0320633C001F07C
:103E980034C002F035C003F036C004F037C005F076
:103EA80038C006F039C007F03AC008F00A0E096EAB
:103EB800000E0A6E000E0B6E000E0C6E000E0D6EDC
:103EC800000E0E6E000E0F6E000E106E80EC25F0C8
:103ED80001C033F002C034F003C035F004C036F03E
:103EE80005C037F006C038F007C039F008C03AF00E
:103EF8003B503C10D8B483EF1FF085EF1FF0B6EFAE
:103F08001FF0335034103510361037103810391070
:103F18003A10D8A492EF1FF094EF1FF006EF1FF0AD
:103F280030BEA1EF1FF0305006E12F04D8B09FEF4C
:103F38001FF0A1EF1FF006EF1FF032BEACEF1FF02D
:103F4800325008E13104D8A0ACEF1FF0AEEF1FF0FB
:103F5800B6EF1FF00001F3B3B4EF1FF0B6EF1FF098
:103F680006EF1FF01DC012F01EC013F0000E3B2418
:103F7800146E020E3C20156E31C016F032C017F0D8
:103F880090EC27F01200000E066E000EDFEC2DF00C
:103F98002EEC27F0076E040E0760D5EF1FF0D7EF61
:103FA8001FF006EF20F0E9EF1FF0E4C106F006EF7E
:103FB80020F0E5C106F006EF20F0E6C106F006EFB6
:103FC80020F0E7C106F006EF20F00750046E056AFE
:103FD8000550000AD8B4F3EF1FF006EF20F00450A4
:103FE800000AD8B4D9EF1FF0010AD8B4DDEF1FF0EA
:103FF800030AD8B4E1EF1FF0010AD8B4E5EF1FF0C7
:1040080006EF20F0010EDFEC2DF02EEC27F0076E06
:10401800040E076012EF20F014EF20F043EF20F0B9
:1040280026EF20F0E8C106F043EF20F0E9C106F0E2
:1040380043EF20F0EAC106F043EF20F0EBC106F0B1
:1040480043EF20F00750046E056A0550000AD8B403
:1040580030EF20F043EF20F00450000AD8B416EFF8
:1040680020F0010AD8B41AEF20F0030AD8B41EEFE2
:1040780020F0010AD8B422EF20F043EF20F0020E1E
:10408800DFEC2DF02EEC27F0076E040E07604FEFE3
:1040980020F051EF20F080EF20F063EF20F0ECC12A
:1040A80006F080EF20F0EDC106F080EF20F0EEC1C1
:1040B80006F080EF20F0EFC106F080EF20F0075007
:1040C800046E056A0550000AD8B46DEF20F080EF41
:1040D80020F00450000AD8B453EF20F0010AD8B4F5
:1040E80057EF20F0030AD8B45BEF20F0010AD8B4E8
:1040F8005FEF20F080EF20F0030EDFEC2DF02EECC8
:1041080027F0076E040E07608CEF20F08EEF20F08A
:10411800BDEF20F0A0EF20F0F0C106F0BDEF20F0D9
:10412800F1C106F0BDEF20F0F2C106F0BDEF20F0BE
:10413800F3C106F0BDEF20F00750046E056A055084
:10414800000AD8B4AAEF20F0BDEF20F00450000A0E
:10415800D8B490EF20F0010AD8B494EF20F0030A05
:10416800D8B498EF20F0010AD8B49CEF20F0BDEF46
:1041780020F00650120070C01EF071C01FF072C00F
:1041880020F073C021F060C022F061C023F062C04B
:1041980024F063C025F07FEC24F0D8B0D6EF20F0EF
:1041A800D8EF20F0F1EF20F074C01EF075C01FF0BA
:1041B80076C020F077C021F060C022F061C023F003
:1041C80062C024F063C025F07FEC24F0D8B0EFEF94
:1041D80020F0F1EF20F075EF21F074C01EF075C0EB
:1041E8001FF076C020F077C021F060C022F061C0D7
:1041F80023F062C024F063C025F07FEC24F0D8B02F
:1042080008EF21F00AEF21F023EF21F060C01EF043
:1042180061C01FF062C020F063C021F078C022F0B6
:1042280079C023F07AC024F07BC025F07FEC24F01D
:10423800D8A021EF21F023EF21F02DEF21F0000E7F
:104248004F6E000E506E000E516E000E526E6BEFE8
:1042580021F060C032F061C033F062C034F063C056
:1042680035F078C02EF079C02FF07AC030F07BC0DE
:1042780031F055EC2FF02EC036F02FC037F030C09B
:1042880038F031C039F074C032F075C033F076C000
:1042980034F077C035F078C02EF079C02FF07AC0AE
:1042A80030F07BC031F055EC2FF02EC03AF02FC023
:1042B8003BF030C03CF031C03DF0D1EC1AF036C0D4
:1042C8004FF037C050F038C051F039C052F04FC0ED
:1042D80060F050C061F051C062F052C063F0B3EFBB
:1042E80021F070C032F071C033F072C034F073C086
:1042F80035F060C02EF061C02FF062C030F063C0AE
:1043080031F055EC2FF02EC036F02FC037F030C00A
:1043180038F031C039F070C032F071C033F072C07B
:1043280034F073C035F074C02EF075C02FF076C02D
:1043380030F077C031F055EC2FF02EC03AF02FC096
:104348003BF030C03CF031C03DF0D1EC1AF036C043
:1043580060F037C061F038C062F039C063F0120015
:10436800246E2450D8B4BBEF21F0BDEF21F0DFEF6D
:1043780021F01FBEC4EF21F0C2EF21F0DFEF21F0E2
:104388001CC020F01DC021F01EC022F01FC023F069
:10439800201E211E221E231E202A000E2122222238
:1043A800232220C026F021C027F022C028F023C0F5
:1043B80029F0E7EF21F01CC026F01DC027F01EC031
:1043C80028F01FC029F01C501D101E101F10D8A463
:1043D800F0EF21F0F2EF21F0FCEF21F0000E1C6E5F
:1043E800000E1D6E000E1E6E000E1F6E8DEF22F069
:1043F800960E256E06EF22F0252AD890293228320B
:1044080027322632000E2614206E000E2714216E45
:10441800000E2814226EFE0E2914236E205021103F
:1044280022102310D8A41BEF22F01DEF22F000EF7A
:1044380022F02BEF22F0252A010E2626000E272235
:1044480028222922D8902932283227322632000EF3
:104458002614206E000E2714216E000E2814226EDA
:10446800FF0E2914236E2050211022102310D8A4E7
:1044780040EF22F042EF22F01FEF22F04AEF22F045
:104488002506D890263627362836293628BE4FEFF7
:1044980022F051EF22F059EF22F0020E256057EF7B
:1044A80022F059EF22F044EF22F025B05EEF22F01F
:1044B80060EF22F061EF22F0289ED890253225C0C7
:1044C80020F0216A226A236A20C023F0226A216A26
:1044D800206A2050261221502712225028122350D9
:1044E80029122450D8B47BEF22F07DEF22F085EF1B
:1044F80022F01FBE84EF22F082EF22F085EF22F037
:10450800298E26C01CF027C01DF028C01EF029C027
:104518001FF01200000E186E000E196E000E1A6EB3
:10452800000E1B6E000E176E000E166E9EEF22F028
:104538000D4A0E2A0DC0D9FF0EC0DAFF200EDE1874
:10454800D8B4A9EF22F0ABEF22F09CEF22F00DC017
:10455800D9FF0EC0DAFFDF50116EF70E1124126E6C
:10456800136AFF0E1322135009E1050E125CD8A03E
:10457800C0EF22F0C2EF22F09CEF22F0CCEF22F045
:10458800000E176E010E166E0D4A0E2A13EF23F059
:104598000DC0D9FF0EC0DAFFDF50116E126A12503B
:1045A800000AD8B4DAEF22F013EF23F011502B0AE7
:1045B800D8B4C8EF22F0060AD8B4C4EF22F013EF3B
:1045C80023F00DC0D9FF0EC0DAFFDF50116ED00EF8
:1045D8001124126E136AFF0E1322146A156A18C08A
:1045E80001F019C002F01AC003F01BC004F00A0E53
:1045F800056E000E066E000E076E000E086E12ECB9
:104608002DF01250015C186E13500258196E145098
:1046180003581A6E155004581B6EC8EF22F00DC0CF
:10462800D9FF0EC0DAFFDF50116ED00E1124126EC2
:10463800136AFF0E1322135009E10A0E125CD8A068
:1046480028EF23F02AEF23F0E5EF22F01650171099
:10465800D8A431EF23F033EF23F04EEF23F018C046
:1046680011F019C012F01AC013F01BC014F0111E7B
:10467800121E131E141E112A000E122213221422B7
:1046880011C00DF012C00EF013C00FF014C010F0DE
:1046980056EF23F018C00DF019C00EF01AC00FF035
:1046A8001BC010F01200000E0F6E000E0E6E000EF2
:1046B8000D6E000E0C6E63EF23F0074A082A07C040
:1046C800F6FF08C0F7FF0800F550200AD8B46FEFCE
:1046D80023F071EF23F061EF23F007C0F6FF08C065
:1046E800F7FF0800F5CF09F0F70E09240A6E0B6AE8
:1046F800FF0E0B220B5009E1050E0A5CD8A087EFCC
:1047080023F089EF23F061EF23F093EF23F0000EFD
:104718000D6E010E0C6E074A082AC8EF23F007C079
:10472800F6FF08C0F7FF0800F550096E0A6A0A503C
:10473800000AD8B4A2EF23F0C8EF23F009502B0ADF
:10474800D8B48FEF23F0060AD8B48BEF23F0C8EF64
:1047580023F00EC001F00FC002F0000E046E0A0E26
:10476800036E3FEC30F007C0F6FF08C0F7FF080003
:10477800F550015E000E025A300E01240E6E000E36
:1047880002200F6E8FEF23F007C0F6FF08C0F7FF77
:104798000800F5CF09F0D00E09240A6E0B6AFF0E47
:1047A8000B220B5009E10A0E0A5CD8A0DEEF23F0B9
:1047B800E0EF23F0ADEF23F00C500D10D8A4E7EF95
:1047C80023F0E9EF23F0F7EF23F00EC009F00FC054
:1047D8000AF0091E0A1E094A0A2A09C007F00AC077
:1047E80008F0FBEF23F00EC007F00FC008F012002E
:1047F800033404340A6E0A50D8A405EF24F007EFF6
:1048080024F011EF24F0000E016E000E026E000E6F
:10481800036E000E046E7EEF24F001C005F002C0A6
:1048280006F003C007F004C008F0200E21EF24F0C2
:10483800D8900832073206320532E82E1CEF24F0F1
:104848000550096E038EFF0E0116FF0E0216FF0EAD
:104858000316000E0416960E0A5E0ABE38EF24F000
:1048680036EF24F04EEF24F00A50800A970FD8B0A4
:1048780040EF24F042EF24F044EF24F007EF24F057
:10488800D89004320332023201320A3E44EF24F057
:1048980066EF24F01F0E0A6454EF24F056EF24F05C
:1048A8005EEF24F007EF24F0D89001360236033685
:1048B80004360A060A50D8A464EF24F066EF24F000
:1048C80058EF24F00950D8B46CEF24F06EEF24F0C0
:1048D80076EF24F0041E031E021E016C000E022255
:1048E8000322042201C001F002C002F003C003F059
:1048F80004C004F01200000E1E14266E000E1F14D1
:10490800276E800E2014286E7F0E2114296E2650E3
:10491800271028102910D8A494EF24F096EF24F03B
:104928009EEF24F0000E1E6E000E1F6E000E206E0D
:10493800000E216E000E2214266E000E2314276E20
:10494800800E2414286E7F0E2514296E26502710F9
:1049580028102910D8A4B3EF24F0B5EF24F0BDEF48
:1049680024F0000E226E000E236E000E246E000E40
:10497800256E21AEC2EF24F0C4EF24F0CDEF24F071
:104988001E6C1F1ED8B01F2A201ED8B0202A800EE9
:10499800215625AED2EF24F0D4EF24F0DDEF24F039
:1049A800226C231ED8B0232A241ED8B0242A800EB5
:1049B8002556000E1E1A000E1F1A000E201A800E11
:1049C800211A000E221A000E231A000E241A800E35
:1049D800251A22501E5C23501F5824502058255059
:1049E8002158D8B0FAEF24F0FCEF24F0FFEF24F0C0
:1049F800D89000EF25F0D8801200CFC00BF0D0C0BF
:104A08000CF0D1C00DF0D2C00EF001C00BF002C006
:104A18000CF003C00DF004C00EF00BC005F00CC084
:104A280006F00DC007F00EC008F0180E21EF25F0B3
:104A3800D8900832073206320532E82E1CEF25F0EE
:104A48000550096E0A6A09500A10D8A42EEF25F0FD
:104A580030EF25F050EF25F0D8900B34056E0C346C
:104A6800066E0D34076E0E34086E055006100710DA
:104A78000810D8A442EF25F044EF25F04AEF25F0BE
:104A8800000E026E020E016E7FEF25F0000E026E20
:104A9800030E016E7FEF25F009280A10D8A457EFFE
:104AA80025F059EF25F07BEF25F00BC005F00CC081
:104AB80006F00DC007F00EC008F0090ED8900536B4
:104AC800063607360836E82E62EF25F00550061040
:104AD80007100810D8B473EF25F076EF25F0010E13
:104AE80077EF25F0000E016E026A7FEF25F0000EC9
:104AF800026E040E016E120020EE11F0070EDE6A3F
:104B0800E806FDE209500A100B100C100D100E10EB
:104B18000F101010D8B493EF25F095EF25F0E7EFBC
:104B280025F0010E196EA3EF25F0D89009360A3644
:104B38000B360C360D360E360F361036192A10AED7
:104B4800A8EF25F0AAEF25F099EF25F0D8901136B7
:104B580012361336143615361636173618360950E7
:104B6800015C0A5002580B5003580C5004580D5061
:104B780005580E5006580F50075810500858D8A01E
:104B8800C8EF25F0CAEF25F0DBEF25F00950015EEC
:104B98000A50025A0B50035A0C50045A0D50055A29
:104BA8000E50065A0F50075A1050085A1180D890C4
:104BB80010320F320E320D320C320B320A320932F9
:104BC800192EAAEF25F011C001F012C002F013C08F
:104BD80003F014C004F015C005F016C006F017C0A5
:104BE80007F018C008F01200056E0504D8A4FFEFFE
:104BF80025F001EF26F012EF26F004507F0F086E23
:104C080008380F0B066E08500F0B076E065085EC20
:104C180030F0075085EC30F060EF26F0020E0518F2
:104C2800D8A419EF26F01BEF26F02CEF26F004503D
:104C3800BF0F086E08380F0B066E08500F0B076E73
:104C4800065085EC30F0075085EC30F060EF26F028
:104C5800030E0518D8A433EF26F035EF26F046EFFB
:104C680026F00450930F086E08380F0B066E085094
:104C78000F0B076E065085EC30F0075085EC30F0CE
:104C880060EF26F0040E0518D8A44DEF26F04FEF7C
:104C980026F060EF26F00450D30F086E08380F0B8B
:104CA800066E08500F0B076E065085EC30F0075063
:104CB80085EC30F060EF26F0120009500A100B1056
:104CC8000C100D100E100F101010D8B46EEF26F047
:104CD80070EF26F0B8EF26F0010E116E7EEF26F089
:104CE800D89009360A360B360C360D360E360F3686
:104CF8001036112A10AE83EF26F085EF26F074EFF8
:104D080026F00950015C0A5002580B5003580C5009
:104D180004580D5005580E5006580F50075810509B
:104D28000858D8A09AEF26F09CEF26F0ACEF26F0B2
:104D38000950015E0A50025A0B50035A0C50045A8B
:104D48000D50055A0E50065A0F50075A1050085A5F
:104D5800D89010320F320E320D320C320B320A322A
:104D68000932112E85EF26F001C001F002C002F0D1
:104D780003C003F004C004F005C005F006C006F047
:104D880007C007F008C008F0120004500510D8B496
:104D9800D0EF26F0D2EF26F0DBEF26F00450051016
:104DA800D8A4D9EF26F0DBEF26F0E0EF26F002508A
:104DB80095EC30F02DEF27F020EE09F00450D926BD
:104DC8000550DA22DE50DE10D8B4EDEF26F0EFEF12
:104DD80026F00AEF27F020EE09F00450D9260550F6
:104DE800DA2210EE03F00450E1260550E222DE50EC
:104DF800E65CE650800A0A6EDE50800A0A58D8B08F
:104E080008EF27F00AEF27F02DEF27F020EE03F048
:104E18000450D9260550DA22DECF06F0DDCF07F0A0
:104E280004C0D9FF05C0DAFFDECF08F0DDCF09F0F6
:104E380006500824D96E07500920DA6E02C0DFFF39
:104E480020EE03F00450D9260550DA22DE2A000E9F
:104E5800DD22120081B833EF27F035EF27F046EF57
:104E680027F0340E016EF20EE82EFED7012EFCD785
:104E780081A841EF27F043EF27F03CEF27F0000E21
:104E88008FEF27F081BA4BEF27F04DEF27F05EEF59
:104E980027F0340E016EF20EE82EFED7012EFCD755
:104EA80081AA59EF27F05BEF27F054EF27F0010EA6
:104EB8008FEF27F081BC63EF27F065EF27F076EFDF
:104EC80027F0340E016EF20EE82EFED7012EFCD725
:104ED80081AC71EF27F073EF27F06CEF27F0020E2B
:104EE8008FEF27F081BE7BEF27F07DEF27F08EEF65
:104EF80027F0340E016EF20EE82EFED7012EFCD7F5
:104F080081AE89EF27F08BEF27F084EF27F0030EAF
:104F18008FEF27F0040E12000001F3A196EF27F09F
:104F280098EF27F0A2EF27F014C00BF015C00CF093
:104F380012C00DF013C00EF078EC2FF017BEA7EFDB
:104F480027F0A9EF27F0AFEF27F016C01BF017C026
:104F58001CF0B3EF27F0000E1C6E000E1B6E000E47
:104F68001A6E000E196EC5EF27F0000E036E200EA4
:104F7800026E12C004F013C005F0C9EC26F0194AFD
:104F88001A2A1B50195C1A50800A186E1C50800A85
:104F98001858D8A0D2EF27F0D4EF27F0B9EF27F0B0
:104FA8000001F3B1DAEF27F0DCEF27F0E6EF27F0A6
:104FB80014C00BF015C00CF012C00DF013C00EF0A9
:104FC80078EC2FF01200000E0114096E000E021486
:104FD8000A6E800E03140B6E7F0E04140C6E0950BB
:104FE8000A100B100C10D8A4FCEF27F0FEEF27F0E6
:104FF80006EF28F0000E016E000E026E000E036E22
:10500800000E046E000E0514096E000E06140A6EDA
:10501800800E07140B6E7F0E08140C6E09500A10D0
:105028000B100C10D8A41BEF28F01DEF28F025EF6B
:1050380028F0000E056E000E066E000E076E000EBC
:10504800086E055001180FE1065002180CE10750D0
:10505800031809E108500418D8B435EF28F037EFE1
:1050680028F03AEF28F0D8903BEF28F0D8801200CB
:10507800000E096E000E0A6E000E0B6E000E0C6E0E
:105088000550061007100810D8B44DEF28F04FEF60
:1050980028F085EF28F0010E0D6E59EF28F0D89012
:1050A80005360636073608360D2A08AE5EEF28F0B4
:1050B80060EF28F053EF28F0D89009360A360B36FF
:1050C8000C360550015C065002580750035808502A
:1050D8000458D8A072EF28F074EF28F07DEF28F07C
:1050E8000550015E0650025A0750035A0850045AE8
:1050F8000980D89008320732063205320D2E60EF4B
:1051080028F009C001F00AC002F00BC003F00CC07F
:1051180004F012008C0E0001B86F020EB96F230E56
:10512800BA6F7F0EBB6FE7C0BCF0E8C0BDF0E9C046
:10513800BEF0EAC0BFF094EC2EF0780E0001B86F14
:10514800020EB96FD30EBA6F7E0EBB6FF1C0BCF002
:10515800F2C0BDF094EC2EF0010E046E010EF8ECD6
:1051680025F0800E056E7F0E066E95EC2CF0010E74
:10517800046E020EF8EC25F08C0E056E020E066E1B
:1051880095EC2CF0010E046E030EF8EC25F0780E69
:10519800056E020E066E95EC2CF0010E046E040EE0
:1051A800F8EC25F04A0E056E7F0E066E95EC2CF095
:1051B80012007CC060F07DC061F07EC062F07FC0EC
:1051C80063F0000E0001646F000E656FF00E666FED
:1051D800C20E676F000E686F000E696FF00E6A6F7F
:1051E800420E6B6FF10E6C6FF00E6D6F700E6E6F7E
:1051F8003F0E6F6F000E706F000E716FF00E726FC2
:10520800C10E736F000E746F000E756F000E766F0F
:10521800000E776F000E786F000E796FF00E7A6FC0
:10522800410E7B6FBFEC20F060C07CF061C07DF068
:1052380062C07EF063C07FF012007CC060F07DC069
:1052480061F07EC062F07FC063F0000E0001646F01
:10525800000E656FF00E666FC20E676F000E686F06
:10526800000E696FF00E6A6F420E6B6FF10E6C6F75
:10527800F00E6D6F700E6E6F3F0E6F6F000E706FD9
:10528800000E716F000E726F000E736F000E746F58
:10529800000E756FF00E766F410E776F000E786F07
:1052A800000E796F700E7A6F420E7B6FBFEC20F0A4
:1052B80060C07CF061C07DF062C07EF063C07FF0AA
:1052C80012007CC060F07DC061F07EC062F07FC0DB
:1052D80063F0000E0001646F000E656FF00E666FDC
:1052E800C20E676F000E686F000E696FF00E6A6F6E
:1052F800420E6B6FF10E6C6FF00E6D6F700E6E6F6D
:105308003F0E6F6F000E706F000E716FF00E726FB0
:10531800410E736F000E746F000E756F700E766F0E
:10532800420E776F000E786F000E796FB40E7A6FA9
:10533800420E7B6FBFEC20F060C07CF061C07DF056
:1053480062C07EF063C07FF012007CC060F07DC058
:1053580061F07EC062F07FC063F0000E0001646FF0
:10536800000E656FF00E666FC20E676F000E686FF5
:10537800000E696FF00E6A6F420E6B6FF10E6C6F64
:10538800F00E6D6F700E6E6F3F0E6F6F000E706FC8
:10539800000E716F700E726F420E736F000E746F95
:1053A800000E756FB40E766F420E776F000E786F31
:1053B800000E796FF00E7A6F420E7B6FBFEC20F013
:1053C80060C07CF061C07DF062C07EF063C07FF099
:1053D80012007CC060F07DC061F07EC062F07FC0CA
:1053E80063F0000E0001646F000E656FF00E666FCB
:1053F800C20E676F000E686F000E696FF00E6A6F5D
:10540800420E6B6FF10E6C6FF00E6D6F700E6E6F5B
:105418003F0E6F6F000E706F000E716F700E726F1F
:10542800C20E736F000E746F000E756FF00E766FFC
:10543800C10E776F000E786F000E796F000E7A6FCD
:10544800000E7B6FBFEC20F060C07CF061C07DF087
:1054580062C07EF063C07FF012007CC060F07DC047
:1054680061F07EC062F07FC063F0000E0001646FDF
:10547800000E656FF00E666FC20E676F000E686FE4
:10548800000E696FF00E6A6F420E6B6FF10E6C6F53
:10549800F00E6D6F700E6E6F3F0E6F6F000E706FB7
:1054A800000E716FB40E726FC20E736F000E746FC0
:1054B800000E756F700E766FC20E776F000E786FE4
:1054C800000E796FF00E7A6FC10E7B6FBFEC20F083
:1054D80060C07CF061C07DF062C07EF063C07FF088
:1054E80012007CC060F07DC061F07EC062F07FC0B9
:1054F80063F0000E0001646F000E656FF00E666FBA
:10550800C20E676F000E686F000E696FF00E6A6F4B
:10551800420E6B6FF10E6C6FF00E6D6F700E6E6F4A
:105528003F0E6F6F000E706F000E716FF00E726F8E
:10553800C20E736F000E746F000E756FB40E766F27
:10554800C20E776F000E786F000E796F700E7A6F4B
:10555800C20E7B6FBFEC20F060C07CF061C07DF0B4
:1055680062C07EF063C07FF012007CC060F07DC036
:1055780061F07EC062F07FC063F0000E0001646FCE
:10558800000E656F000E666FC10E676F000E686FC4
:10559800000E696F000E6A6F410E6B6F810E6C6FA3
:1055A800800E6D6F800E6E6F3D0E6F6F000E706F08
:1055B800000E716F000E726FC00E736F000E746F65
:1055C800000E756F000E766F000E776F000E786F05
:1055D800000E796F000E7A6F400E7B6FBFEC20F0E3
:1055E80060C07CF061C07DF062C07EF063C07FF077
:1055F80012007CC060F07DC061F07EC062F07FC0A8
:1056080063F0000E0001646F000E656F000E666F98
:10561800C10E676F000E686F000E696F000E6A6F2B
:10562800410E6B6F810E6C6F800E6D6F800E6E6F0A
:105638003D0E6F6F000E706F000E716F000E726F6F
:10564800000E736F000E746F000E756F000E766F8C
:10565800400E776F000E786F000E796F800E7A6FAC
:10566800400E7B6FBFEC20F060C07CF061C07DF025
:1056780062C07EF063C07FF012007CC060F07DC025
:1056880061F07EC062F07FC063F0000E0001646FBD
:10569800000E656F000E666FC10E676F000E686FB3
:1056A800000E696F000E6A6F410E6B6F810E6C6F92
:1056B800800E6D6F800E6E6F3D0E6F6F000E706FF7
:1056C800000E716F000E726F400E736F000E746FD4
:1056D800000E756F800E766F400E776F000E786F34
:1056E800000E796FC00E7A6F400E7B6FBFEC20F012
:1056F80060C07CF061C07DF062C07EF063C07FF066
:1057080012007CC060F07DC061F07EC062F07FC096
:1057180063F0000E0001646F000E656F000E666F87
:10572800C10E676F000E686F000E696F000E6A6F1A
:10573800410E6B6F810E6C6F800E6D6F800E6E6FF9
:105748003D0E6F6F000E706F000E716F800E726FDE
:10575800400E736F000E746F000E756FC00E766F7B
:10576800400E776F000E786F000E796F000E7A6F1B
:10577800410E7B6FBFEC20F060C07CF061C07DF013
:1057880062C07EF063C07FF012007CC060F07DC014
:1057980061F07EC062F07FC063F0000E0001646FAC
:1057A800000E656F000E666FC10E676F000E686FA2
:1057B800000E696F000E6A6F410E6B6F810E6C6F81
:1057C800800E6D6F800E6E6F3D0E6F6F000E706FE6
:1057D800000E716F800E726FC00E736F000E746FC3
:1057E800000E756F000E766FC00E776F000E786F23
:1057F800000E796F000E7A6F000E7B6FBFEC20F001
:1058080060C07CF061C07DF062C07EF063C07FF054
:1058180012007CC060F07DC061F07EC062F07FC085
:1058280063F0000E0001646F000E656F000E666F76
:10583800C10E676F000E686F000E696F000E6A6F09
:10584800410E6B6F810E6C6F800E6D6F800E6E6FE8
:105858003D0E6F6F000E706F000E716FC00E726F8D
:10586800C00E736F000E746F000E756F800E766F2A
:10587800C00E776F000E786F000E796F000E7A6F8A
:10588800C00E7B6FBFEC20F060C07CF061C07DF083
:1058980062C07EF063C07FF012007CC060F07DC003
:1058A80061F07EC062F07FC063F0000E0001646F9B
:1058B800000E656F000E666FC10E676F000E686F91
:1058C800000E696F000E6A6F410E6B6F810E6C6F70
:1058D800800E6D6F800E6E6F3D0E6F6F000E706FD5
:1058E800000E716F000E726FC10E736F000E746F31
:1058F800000E756FC00E766FC00E776F000E786F52
:10590800000E796F800E7A6FC00E7B6FBFEC20F0AF
:1059180060C07CF061C07DF062C07EF063C07FF043
:105928001200000E0A6E000E096EB5EF2CF0095039
:105938000524076E0A500620086E07C0F6FF08C047
:10594800F7FFF86A070EF76403D00800F55005D092
:10595800F6CFE9FFF7CFEAFFEF50F5EC2FF0094A51
:105968000A2A09500524076E0A500620086E07C047
:10597800F6FF08C0F7FFF86A070EF76403D00800BF
:10598800F55005D0F6CFE9FFF7CFEAFFEF50000951
:10599800D8A4D1EF2CF0D3EF2CF09BEF2CF0120011
:1059A8000F0E9516F30E9516000E0EEC2EF0680EDF
:1059B800046EE40EE82EFED7042EFCD700D0030EAA
:1059C80085EC30F01A0E046EF80EE82EFED7042E81
:1059D800FCD700D0030E85EC30F03A0E046E230E8F
:1059E800E82EFED7042EFCD700F0030E85EC30F02D
:1059F800020E85EC30F0020E85EC30F0080E85ECD6
:105A080030F0000E85EC30F00C0E85EC30F0000E16
:105A180085EC30F0060E85EC30F01200000E096EB1
:105A2800000E0A6E000E0B6E000E0C6E01A01FEF2A
:105A38002DF021EF2DF029EF2DF005500926065005
:105A48000A2207500B2208500C22D8900536063639
:105A580007360836D8900432033202320132015038
:105A6800021003100410D8A43CEF2DF03EEF2DF0E7
:105A78001AEF2DF009C001F00AC002F00BC003F0C4
:105A88000CC004F0120004BE56EF2DF004500310B1
:105A9800021006E10104D8B054EF2DF056EF2DF0B6
:105AA80071EF2DF001C005F002C006F003C007F049
:105AB80004C008F0051E061E071E081E052A000E53
:105AC80006220722082205C001F006C002F007C01E
:105AD80003F008C004F079EF2DF001C001F002C016
